:020000040000fa
:10000000f07f0020a5420000033900005b420000a1
:1000100000000000000000000000000000000000e0
:10002000000000000000000000000000f3370000a6
:100030000000000000000000f3370000f33700006c
:10004000f3370000f3370000f3370000f337000008
:10005000f3370000f3370000f337000021500000b1
:10006000f3370000f3370000f3370000f3370000e8
:10007000f33700000000000000000000f33700002c
:10008000f3370000f3370000614c0000f337000045
:10009000f33700000000000000000000f33700000c
:1000a000f3370000f3370000f3370000f3370000a8
:020000040000fa
:1000b000f8b5c046f8bc08bc9e46704785420000b3
:1000c000f8b5c046f8bc08bc9e4670475d420000cb
:020000040000fa
:0800d000801500000100000092
:020000040000fa
:1000d800f0b5de4657464e464546e0b585b00500c4
:1000e8004378002b00d100e3836b002b00d1fce2a6
:1000f800446aa38b9b0505d5238b9b0502d58023da
:100108009b00a383a38bdb0505d5238bdb0502d5d9
:1001180080235b00a383a38b1b0604d5238b1b06bc
:1001280001d58023a383a38b5b0604d5238b5b06b1
:1001380001d54023a383a38b9b0604d5238b9b0661
:1001480001d52023a383a38bdb070dd5238bdb07e6
:100158000ad50123a383a3820f33a3832383002219
:100168000421686bab6b9847a38bdb060dd5238bfb
:10017800db060ad51023a383a3820f3ba383238323
:1001880000220321686bab6b9847a38b5b0709d5eb
:10019800238b5b0706d50423a38300220721686b02
:1001a800ab6b9847a38b1b0702d5238b1b0735d452
:1001b8000823ff33e35cdb065dd50a23ff33e35cea
:1001c800db0658d56e6cf37902229343f371f37b07
:1001d8009343f3733768002f47d0296d0632386888
:1001e80004f007ff0823ff331022e254033b3032a8
:1001f800e2543a689179d3791b020b432ad121330f
:100208000722ea5402233b7206337b60bb693360e2
:10021800fb68002b2fd0380098472ce021230022c0
:10022800ea54237b1b079b0f984ad25c3023ea547d
:10023800280050306022002104f016ffab6b002b21
:1002480003d000220221686b98478023a372783b71
:10025800a383ade713787f2b03d821230222ea5426
:10026800d0e721230622ea54cce721230122ea54cd
:10027800e7330f32e2540823ff33e35c9b0737d59b
:100288000a23ff33e35c9b0732d56b6c9e68002e14
:100298002ed02122aa5c082a1ad0316a002971d1ed
:1002a800327c51b200295ddb21220521a9540022ac
:1002b8003272b2699a60f368002b01d03000984717
:1002c8000823ff330222e254033b3e32e2540fe09c
:1002d800002221216a543272b16999607260f36810
:1002e800002b01d0300098470823ff330222e25444
:1002f8000823ff33e35cdb0700d4a3e00a23ff33c2
:10030800e35cdb0700d49de06b6c98462123eb5c33
:10031800052b59d043461e68002e74d06f6dbf045c
:10032800bf0c306a73683a189a4201d91f1abfb2d3
:10033800296d33689c4660443a0004f05afe336adb
:10034800fb1833627268934264d241468988b94285
:1003580060d882235b004022e2540823ff333f3aef
:10036800e2546fe07f231a4032746b6e9b0b9b0341
:100378006b660823ff330222e2540623ff337e32e2
:10038800e254b5e79f89b94200d88fb2286e7368e6
:10039800591a33689c4661443a0004f02afe336acd
:1003a800db1b33626b6e9b0b9b036b666b6ebf0430
:1003b800bf0c1f436f660823ff330222e254062353
:1003c800ff337e32e25493e743461868002813d07f
:1003d800002303722122ab540822ff320121a154c9
:1003e800033a3f31a1544246816911604360c368b2
:1003f800002b27d0984725e021230422ea54e7332d
:10040800033ae2541ee021230322ea54e733023a76
:10041800e25417e093429b415b4233722123072247
:10042800ea540823ff33063ae254033b3f32e254ce
:100438004346b2691a60336a7360f368002b01d0cf
:1004480030009847012601239b460827ff370733ca
:100458009a4649e07f22134003744346ea18536ed4
:100468009b0b9b0353660a234a46d3550623ff3347
:1004780080224946ca5434e0009b5b01e3180933e3
:10048800ff330a321a704b46da552ae064510000ed
:10049800019b9b89994200d88bb24268511a026825
:1004a800944661444246aa181166016ac91a016253
:1004b800516e890b89035166516e9b049b0c0b434b
:1004c80053660a234a46d355009b5b01e3180a3357
:1004d800ff331a00022313700623ff338022494694
:1004e800ca540136032e73d0238c9bb20096334135
:1004f80059461942f5d07301e3180a33ff331b78c4
:10050800dbb2039373019846a146c1444b46db5db9
:10051800dbb20293029b5146194212d0039b194247
:100528000fd04346eb186a331b789b0709d543461f
:10053800eb186a331a7802218a431a704b465246de
:10054800da55029b9b07ccd5039b9b07c9d52b008b
:100558004433b2009b58019398680028c1d0016abf
:10056800002995d1037c5ab2002a00da72e70023e9
:100578000372019b82699a60c368002b00d0984778
:10058800019b9a68002a00d176e7106a019b9b8933
:10059800984200d883b25168081a11688c466044a2
:1005a800414669180866106ac01a10624a6e920bb2
:1005b80092034a664a6e9b049b0c13434b660a23bc
:1005c8004a46d3550623ff3380224946ca5488e752
:1005d800023e012399460823ff339a4621e000236f
:1005e80003725b4682691a60036a4360c368002b22
:1005f80000d098475b461b68002b6cd01a687f01b7
:10060800eb191a650523424651465354e7190a3730
:10061800ff373b70ff3340224146ca540136032e50
:1006280063d0238c9bb2370033414a461a42f5d037
:100638007301e3180a33ff331b78dbb203937301aa
:100648009846a044434652469b5cdbb20293029b09
:1006580004221a4210d07301eb185a331b789b07f7
:1006680006d57301eb185a331a7802218a431a7097
:100678004346524604219954029b4a461a42cdd019
:10068800039b1a42cad02b004433b2009b589b46a6
:1006980018680028c2d07b01eb185b6d9b049b0c8b
:1006a800026a9a18026241688a4298d25946898831
:1006b80099420dd803689a187f01ef193a65052306
:1006c800424651465354ff3340224146ca54a5e797
:1006d8004b46037285e77f01e7190937ff37052283
:1006e8003a70434651465a5498e705b03cbc904688
:0806f8009946a246ab46f0bd95
:020000040000fa
:10070000f0b599b011930b68139009934b680d9154
:1007100005938b680a930b691693cb680393136850
:10072000089353680898079300220023079903f061
:1007300027ff00280bd1099b5b073bd40823099aac
:100740001a400a9b0b9204930fd0202306e08022cc
:1007500012069446079b634407932d23039a137054
:100760000a9b013b049301230b930b99079b8c4637
:10077000039a089962445b0010925b08c04a002902
:100780001ad1934218d1119bbe4c413b2100192b29
:1007900000d9211d109804f0c3fc201d04f070fc4a
:1007a000099b0200009303990a9b139803f0e8f950
:1007b00019b0f0bd2b23d1e7934203d811d1089b88
:1007c000002b0ed0119baf4c413b2100192b06d8ba
:1007d0000831109804f0a4fc20000c30dee70c3146
:1007e000f7e7002200230898079904f087f800260d
:1007f000a54f002833d000230293119804f065fc24
:10080000c3b20c93059b002b00dacae10c9b069344
:10081000672b00d045e1059b002b00d1bce1029b7a
:10082000043304db029b059a934200da34e165232a
:100830004de126002f00029b013302930022934bcf
:100840003000390001f0bcf8089a079b04000d0045
:1008500003f076fe0028ecd00024012524e002906d
:10086000ece7029b1a008a4b9a4212da002c10d154
:100870000022884b0898079901f0a2f800220890fe
:10088000079130003900834b01f09af82c000600e4
:100890000f007e4b30003900002202f00dfb0600f5
:1008a0000f00029b013b029332003b00089807991e
:1008b00003f066fe0028d4d19fe732003b00089881
:1008c0000e9902f0f9fa02f0cffc1490159103f0a2
:1008d00099ff1022099b1340034300d090e00c9b2a
:1008e000672b00d08ce0002c00db9ae001358020e3
:1008f000000684460e99089a61440b0014981599d5
:100900000092019332003b0004f0c2fb80231b06df
:10091000cb1808900e933000390000225b4b02f098
:10092000cbfa06000f00013c059b1293179b9c42db
:1009300006d00d9b059a1b691493053b9342bcd8c6
:10094000079b002b09d1099bdb0606d5059b039a63
:10095000013305932e2312995354059a002594468a
:10096000039b634407931d70069b652b2ed1169b3a
:100970005c1e039b1d55029bab4202da5b42029355
:10098000013503260a27169bf61a029b002b60d11d
:100990003319002b5ddc621e2d23002d00d1023b9c
:1009a0000399023c8b54119b413b192b01d84523e1
:1009b0000693039b1919069b0b70049b023b04933f
:1009c000059ba34202da079804f0aafb0323099ac5
:1009d0001340022b12d1049b002b0fdd039804f06f
:1009e0004ffb039b049a9b180b9a824242dd049aa8
:1009f0003021109804f03cfb00230a930398cde6c5
:100a0000079b002b0dd1002c0bda059b039a0133b9
:100a10000593049b1299013b04932e2353542d3bc1
:100a20000793059b3021ea18944602e0039ad154bb
:100a300001339c45fad16246059b303001335b1986
:100a40000593049b013b5b1b0493039b0025985477
:100a50004de70298390000f013fd039b3031013c53
:100a600019550298390000f025fc049b0290013bc7
:100a700004938ae7039a125c1a540138b4e7c0461b
:100a80000000f07f605000000000f03f00002440b4
:100a9000d4feffff00005043029b002b16da6623b2
:100aa0000693059b01330593069b662b10d1029b91
:100ab000002b03da002300263d4f02930c9b672b8b
:100ac00004d0029a059b94466344059366230693db
:100ad00000230e960f97089c079d12930e9a0f9b6a
:100ae0002000290002f0e8f902f0befb14901591f5
:100af00003f088fe8021220009066b1817900092ef
:100b00000193149815990e9a0f9b04f0c1fa802353
:100b10001b06cd180022274b04000e980f9902f0f7
:100b2000cbf9129b0e900f9101331293129a059bf1
:100b30009342d3d10022204b00f042ff0e900f9140
:100b400002000b002000290003f01afd00280ad142
:100b50000e9a0f9b2000290003f0d0fe002806d03b
:100b6000179bdb0703d4002300240e930f940e9ae7
:100b70000f9b0898079900f087fc069b08900e9140
:100b8000029c652b00d100240025059b0795e31ae4
:100b900017930b9b0593c7e6012305933fe60623b6
:100ba000fbe70c9b672bfad006930623059378e7a7
:0c0bb0000000f03f000024400000144052
:020000040000fa
:100bbc00f8b5de4657464e464546e0b504001500ee
:100bcc000f270f404eb2431e033300d9c2e1082356
:100bdc00d356022b00ddc0e1022f00d9c0e1436add
:100bec0098463b0010339b00c318596832110823f8
:100bfc0013408a469a445346db79db0700d4b2e1b2
:100c0c006b68994653469988484601f09bfd00292c
:100c1c004cd0002e00dba9e1e378002b4cd0002354
:100c2c00ab6103332b7200239946696829625346e2
:100c3c001a68002a00d072e104232b720023eb61a6
:100c4c0053461d60002f00d02be1002e00dae8e0a7
:100c5c002123e35c032b6ad0042b00d1c7e0012bca
:100c6c0000d061e1216d0832286804f0c0f98223bc
:100c7c005b0040224146ca54f43b0822ff328b549d
:100c8c000a22ff328b542b689a79002a44d12123f3
:100c9c000732e2545346aa691a6002232b72eb689e
:100cac00002b00d140e1280098473de1002e0edbdf
:100cbc00e378002b00d05ce1a37b012b1bd07f20c1
:100ccc0040423cbc90469946a246ab46f8bd2b7cb4
:100cdc00da0706d54a46002a03d080225242134333
:100cec002b74e378002be7d00023ab6103332b721a
:100cfc000023994699e700239b46a3730a202056ac
:100d0c0003f098fc81465b46ab6103332b720021e8
:100d1c00002e00db8ae788e71b787f2b03d8212382
:100d2c000222e254b6e721230622e254b2e7666db2
:100d3c00b604b60c286a6b6832189a4201d91e1a8e
:100d4c00b6b2216d2b689c466044320004f04ff91a
:100d5c002b6af3182b626a6893421bd300232b7205
:100d6c0021330822e254203bff3241468b540a22a5
:100d7c00ff328b540433ff33c93aca542b6a6b606d
:100d8c005346aa691a60eb68002b00d1cce028000e
:100d9c009847c9e053469b88b3421bd901232b7259
:100dac0021220821a1540822ff3241468b540a22e9
:100dbc00ff328b540433ff33c93aca542b6a6b602d
:100dcc005346aa691a60eb68002b00d1ace02800ee
:100ddc009847a9e001230822ff3241468b540a228e
:100dec00ff328b540433ff33c93aca549ce00023be
:100dfc002122a3542b7201330822ff3241468b541b
:100e0c000a22ff328b540433ff33c93aca54534677
:100e1c00aa691a60eb68002b00d185e0280098477e
:100e2c0082e02123e35c062b14d0072b7cd12123f9
:100e3c000822e254636e9b0b9b0363660223ff3212
:100e4c0041468b540a22ff328b540623ff33893ad6
:100e5c00ca5469e02b6a52469688b34200d29eb2bd
:100e6c00206e3200296804f0c2f82b6a9b1b2b629f
:100e7c0021230922e254636e9b0b9b036366626e13
:100e8c00b3049b0c1343636602230822ff324146d2
:100e9c008b540a22ff328b540623ff33893aca54ef
:100eac0042e0002e12db29687b01e21811651f005d
:100ebc00474405220821ff317a543b000a33ff33a3
:100ecc001a7082235b003b32fa542de0286a9b880f
:100edc00984200d883b26a68101a2a689446604413
:100eec007a01a1180866286ac01a2862486e800b1d
:100efc0080034866486e9b049b0c03434b661300af
:100f0c0043440a220821ff315a541f000a37ff3785
:100f1c003a700622ff328739995405e01a0093691a
:100f2c00002bfbd19561ea61e3780020002b00d007
:100f3c00c7e64b46002b09d0a37a5ab2002a05db30
:100f4c001f221a40012393400d4a13600123a373ff
:100f5c000020b6e67d204042b3e67b204042b0e65e
:100f6c007c204042ade676204042aae67d204042fd
:100f7c00a7e60023ab6103332b720023994655e699
:040f8c0000e100e0a0
:020000040000fa
:100f90000023f0b506001500afb005910193059947
:100fa0000b78002b00d10fe101235b420a930eabbb
:100fb00000240c93802309940b940d930b5d002b5c
:100fc00001d0252b2ad1002c06d02200300003f0be
:100fd00010fe059b1b190593059b1a78252a00d046
:100fe000e7e0013302930593022310219c46082772
:100ff000059803782b2b1bd025d8202b1bd0232b17
:101000001dd02a2b2ad003f0dbfa0b90059b1a780f
:10101000303a092a33d801330593f7e70134cde795
:101020000122099b80180393134309930590dfe77e
:101030000423099a0ee0099b03933b430be0099bb1
:1010400003930b4307e02d2bead0302bd9d1624616
:10105000099b0393134309930130e7e72b680130a1
:101060001a1d1b6805902a600b93002b07da099a5a
:101070005b420392012203990b934a400992099b18
:10108000da0702d5022293430993059b1a782e2a88
:101090000ed10022581c0a9205905a782a2a28d18b
:1010a000023305932b681a1d1b682a6003930a9369
:1010b00005a803f0c1fb059b0700187804f005f8ac
:1010c000692800d183e035dc632800d1d6e01bdc41
:1010d000252800d1dfe0612859d0252306aa137006
:1010e000029b0593002309930b93013b0a93023360
:1010f000b2e003f065fa0a90059b1a78303a092aa3
:10110000d6d801330593f7e7642860d06728e4dc7c
:101110002a00390006a803f0a5fc002800d1a9e0a8
:10112000059b09a95a1c05921b7806aa3000fff7f7
:10113000e7fa3de0702800d17de016dc6e2800d192
:1011400091e06f28c9d12b000022390006a802f0d7
:10115000ddf9002800d18de0059b06aa013309a91d
:101160003000059304f004f822e0752840d0782878
:101170004fd07328b1d1802f00d07be0059b2a6827
:1011800001330593131d2b601268002364e02a00cd
:10119000390006a803f066fc002800d16ae0059b30
:1011a00009a95a1c05921b7806aa300003f0e2ff39
:1011b0002418019b1c19a34200dc74e04f223b4b16
:1011c0001a6001235b42019301982fb0f0bd2b0000
:1011d0000122390006a802f099f900284ad0059b9f
:1011e00006aa013309a93000059303f0c1ffdfe728
:1011f0002b000022390006a802f088f9002839d017
:10120000059b06aa013309a93000059303f0b0ff3e
:10121000cee72b000022390006a802f077f900285b
:1012200028d0059b5a1c05921b7806aa09a93000f4
:1012300003f0a0ffbce72b000022f02106a802f07b
:1012400065f9002816d0059b079a01330593069b84
:10125000134306d1164a163209a9300002f03cffaa
:10126000a6e77823e1e7019b39001a1906a82b00ad
:1012700002f09afd059b013305939ae7802ff9d17f
:10128000059b013305932b681a1d1b682a6006aa6b
:1012900013700123e0e7802fecd1059b06aa0133f0
:1012a00005931070f5e7019479e6c046880900209f
:0412b000284e0000c4
:020000040000fa
:1012b40003460b437fd4002243088b4274d30309b3
:1012c4008b425fd3030a8b4244d3030b8b4228d354
:1012d400030c8b420dd3ff22090212ba030c8b427a
:1012e40002d31212090265d0030b8b4219d300e01a
:1012f400090ac30b8b4201d3cb03c01a5241830b9f
:101304008b4201d38b03c01a5241430b8b4201d34e
:101314004b03c01a5241030b8b4201d30b03c01a77
:101324005241c30a8b4201d3cb02c01a5241830af1
:101334008b4201d38b02c01a5241430a8b4201d320
:101344004b02c01a5241030a8b4201d30b02c01a4a
:101354005241cdd2c3098b4201d3cb01c01a5241b1
:1013640083098b4201d38b01c01a524143098b423a
:1013740001d34b01c01a524103098b4201d30b0123
:10138400c01a5241c3088b4201d3cb00c01a524148
:1013940083088b4201d38b00c01a524143088b420d
:1013a40001d34b00c01a5241411a00d201465241a6
:1013b400104670475de0ca0f00d04942031000d3c5
:1013c4004042534000229c4603098b422dd3030a1a
:1013d4008b4212d3fc22890112ba030a8b420cd32a
:1013e400890192118b4208d3890192118b4204d353
:1013f40089013ad0921100e08909c3098b4201d3d3
:10140400cb01c01a524183098b4201d38b01c01a0c
:10141400524143098b4201d34b01c01a5241030983
:101424008b4201d30b01c01a5241c3088b4201d332
:10143400cb00c01a524183088b4201d38b00c01adf
:101444005241d9d243088b4201d34b00c01a5241b6
:10145400411a00d20146634652415b10104601d343
:101464004042002b00d54942704763465b1000d3cd
:10147400404201b5002003f07dfe02bd0029f8d0f2
:0414840016e77047b0
:020000040000fa
:10148800f0b40125ed070f005f405ad48b4200d11c
:10149800824205d950404240504059404b40594043
:1014a8004e18760ddf187f0d3bd0741c640529d0cb
:1014b800f41b352c26d80e0ddb022b43db0ac902a0
:1014c8002943c9121700202c1ed2e741e240574099
:1014d800e3415a40a340e3405a4000248018594150
:1014e8000ad3b21c520521d0c207012f624117004e
:1014f8004008cb0718434908013636054208af4172
:1015080060417141f0bc7047203c06d01f00e741a4
:10151800e3405f400024012a6741c0186141ebd3d2
:10152800dfe7002eeed129400020ebe70136310538
:101538000020e7e7e742e5d10020c143090dc904cf
:10154800e0e76b400e00871a9e4104d26e40c01b34
:10155800b141d21973414e18df18ac0ae642e9d2fc
:10156800760d7f0d31d0f41b362ccbd8b4460e0d3a
:10157800db022b43db0ac9022943c90a012c32d8f2
:1015880004d1d4075208df073a435b08ef0a6442e4
:10159800904199411ed0002239424dd12419404131
:1015a80049410124394204d10134001849413942e2
:1015b800fad06246a24204d9361b013e3605891983
:1015c800a0e7f10ac90700209ce736429ad100201b
:1015d800002197e70200224394d0b842ded20100ee
:1015e80020002024e3d1202c13dd203ce241170009
:1015f800a240e2405740e3415a40a340e3405a40ea
:10160800012fbf410137174300227c429841914185
:101618000ce01700e741e2405740e3415a40a3403d
:10162800e3405a407c429041994100220f0303d283
:10163800013e241940414941013e36054708ac4165
:0816480050417141f0bc7047f4
:020000040000fa
:10165000f0b557464e464546de46e0b5040083b039
:101660000d00924699468b4230d82dd049465046bf
:1016700003f054fc29000600200003f04ffc331a4d
:101680009846203b9b4633d45a46534693404246a5
:101690001f00534693401e00af423ad8af4200d1dc
:1016a0007be05b46a41bbd41002b00da78e0002202
:1016b00000230092019301235a4693400193012392
:1016c00042469340009328e08242cfd90022002373
:1016d000009201930c9b002b01d01c605d60009870
:1016e000019903b03cbc90469946a246ab46f0bd7a
:1016f000424620239b1a5246da40414613004a468e
:101700008a40170042461f43534693401e00af4293
:10171000c4d900220023009201934346002bd9d064
:10172000fb079c46614672080a437b0846460ee06a
:10173000ab4201d1a2420cd8a41a9d410120241928
:101740006d410021013e24184d41002e06d0ab42d0
:10175000eed9013e24196d41002ef8d1009801996f
:101760005b4600196941002b25db2b005a46444695
:10177000d3402a00e2401c005b461500002b2bdb07
:1017800026005f46be40330026004746be4032007a
:10179000801a9941009001919ce7a342b9d880e753
:1017a0004246202300219b1a00220091019201222f
:1017b000da40019283e7424620239b1a2a004646dc
:1017c0009a402300f340444613432a00e2401c00a1
:1017d0005b461500002bd3da2023424626009b1ad5
:1017e000de402f00b4464646b74066463b003343d2
:0417f000cae7c0463e
:020000040000fa
:1017f400f0b5d6464f464646c0b50f260e40022edb
:1018040000d9b1e0fe25ad001c00083ca4b2ac42f6
:1018140000d9ace0441c00d1ace0446aa146082bda
:1018240049d9002408250134e4b26d00adb2ab42bd
:10183400f9d835001035ad0045196d68002a3cd142
:101844002a60ab80aa710126e9793143e971aa6063
:10185400ab81aa73eb7b3343eb7380235b00494674
:10186400ca541132ca54426d44490a404265436e17
:101874000b404366436d2407e022d2051440234302
:101884004365436e1c434466036903654369036609
:10189400436d5b005b084365436e5b005b08436616
:1018a4000a23ff3313224946ca5400201cbc904625
:1018b4009946a246f0bd0024bbe749b28a46091105
:1018c400884608218c464146674639408c46654423
:1018d40000212960ab80aa71eb7901218c46614615
:1018e4000b43eb715346002b29db73014b441f0060
:1018f40080235b00fd5c07218d43fd54fd5c520099
:101904001f49525c1543fd540623ff334022fa5409
:1019140076005346d90f761836018019436d174a5d
:1019240013404365436d2407e022d20514401c4351
:101934004465436d5b005b0843650020b6e77301b3
:101944004b441f0080235b00fd5c70218d43fd54dc
:10195400fd5c520094460a4a624452781543fd5491
:1019640004338022fa54d3e77c2040429ee77c2053
:1019740040429be77d20404298e7c046ffffff8f2f
:041984002c510000e2
:020000040000fa
:1019880008d1002806d1f54204d801d3002a01d194
:101998006d0d09d10020c143090dc904f0bdf9d16d
:1019a8001242f7d1640df5d00020c143490549081a
:1019b800a6e000206146f0bdf0b50127ff070e0044
:1019c8005e403e40b446be0a4c18dd18f442d7d2f9
:1019d800f542e4d2640decd06d0dead06419c90269
:1019e8003943460dc0023143db023b43db0a10b4e6
:1019f8008e4685b297b26f43140c6c433e0ca41903
:101a0800260c2404bfb227439cb26c43a419190cba
:101a18006943250ca4b249190d04090c6419000c7a
:101a280095b245433e0c76193743bfb2360c150cb8
:101a38004543ad19a6b2240cad192e0437432e0c1c
:101a480036199db24543ad19acb22e0c89191d0c3f
:101a580045436d182e04290c3443704680b295b264
:101a680045433e0c76193743bfb2360c150c454337
:101a7800ad19a6b2ad19240c2e0437432e0c361915
:101a88009db24543ad19acb22e0c89191d0c4543c6
:101a98006d182e043443290c75462d0c90b26843fa
:101aa8003e0c80190604bfb23e43070ca0b23f1893
:101ab800120c6a43d019020c80b2240ca4189ab2f2
:101ac8006a43121914042043120c89181b0c6b4327
:101ad800c91810bc01273d05294203d1b619404158
:101ae8004941013cff077d0d013d641b0bdb6d0087
:101af800ac4209da240500254208be41684161412b
:0a1b080066463143f0bd54e74ee796
:020000040000fa
:021b120070471a
:020000040000fa
:101b1400f0b5de4657464e464546e0b583b0040070
:101b24000e000f250d40022d02d9102900d0a6e089
:101b3400631c00d1a6e0676ae378002b13d1a37b72
:101b4400012b08d07f20404203b03cbc904699460c
:101b5400a246ab46f0bd0023a3730a20205602f030
:101b64006dfd834601e000239b46102e28d0002df6
:101b740056d17f23842149007b540821ff317b54b3
:101b840081330021f954636cd97901208143d971df
:101b9400d97b8143d973e3780020002bd4d15b46f1
:101ba400002b09d0a37a5ab2002a05db1f221a405f
:101bb40001239340354a13600123a3730020c3e734
:101bc4001023842149007b540821ff317b542600d3
:101bd4004436019600211b019946002398467f252f
:101be4000823ff339c4601204b01fb184e46424616
:101bf4009a558422520092469a445246157062467f
:101c04009d54019a08ca0192da7916008643de715e
:101c1400da7b16008643de7301310329e4d1bae787
:101c240076b2002e1bdb6b01fb1880204000195c90
:101c34000727b943195405210820ff3019540933e3
:101c4400ff3319701035ad0065196b683611082122
:101c54000e409e19f37907398b43f3719be76b01af
:101c6400fb1880204000195c7027b94319540a21dd
:101c74000820ff3019540933ff331970e2e77c2040
:101c8400404261e77d2040425ee7c04600e100e05b
:020000040000fa
:101c9400340900201c0000000000000000040020a3
:101ca4003401000000000000100800204000000083
:101cb4000000000050080020400000000000000068
:101cc4000409002030000000000000002c07002060
:101cd4005000000001000000914a0000c54f0000c0
:101ce40031500000a1500000af500000d74f000059
:101cf400554d0000f5370000f5170000151b0000d6
:101d040059270000f52200005d490000814b0000c6
:101d1400bd0b0000c9330000ad3500004150000088
:101d2400131b00000000000034050020ec0000003c
:101d340000000000c00600206c000000000000004d
:101d4400cc07002044000000000000006c090020c3
:101d54000a000000000000008c09002002000000be
:101d640000000000600900200c00000000000000da
:101d7400500900201000000000000000900800201e
:101d84003c000000000000000000002000020000f1
:101d9400000000000002002000020000000000001b
:101da400780900200800000000000000cc08002092
:101db400380000000000000020060020a000000001
:101dc400000000007609002002000000010000006d
:101dd4000100000080090020040000000000000051
:101de4007c0700205000000000000000840900204f
:101df4000400000000000000880900200400000026
:101e04000000000000000000000000002222222246
:020000040000fa
:101e140010b582b0484b1a79052a18d89300474a5e
:101e2400d3589f460321002002f026fc424b186041
:101e3400431c0ed1fa22012392000021404802f0f3
:101e4400a3f8404b1860431c0bd003f01df802b0fc
:101e540010bd00223c4902f041fe374b01221a71a9
:101e6400e8e7354b06221a71efe7334b1b7b002b57
:101e7400edd0314b02221a71e9e702f057fe002837
:101e8400e5d1304b1b79002be1d02b4b03221a7187
:101e94002c4b00221a71dae702f048fe0028d6d152
:101ea40002f0feff03f008f80028fbd003f02af943
:101eb40000b2244ca08102f04dfe244901f076f9d1
:101ec400e621890501f072f9a060214b4022da6114
:101ed400194b3c3a1a71bae702f028fe0028b6d131
:101ee400184b986802f068fa02000b00124c19496a
:101ef400e06a03f01df80300606321220021a1546d
:101f0400223ae261e26a21001c31012000900020a3
:101f140000f0c4f80523237199e702f007fe0028b6
:101f240095d1054a2123d35c002b00d18fe7130000
:101f340002221a718be7c04690080020744e0000fc
:101f4400fd50000050090020053b000000005f43e5
:081f5400004400414c51000063
:020000040000fa
:101f5c00f0b583b005000c004978032900d179e075
:101f6c001dd9052930d009292cd1a278e3781b0280
:101f7c00134304d1c17807220a40052a2ed0ad2282
:101f8c00aa5cdbb29a4200d17fe0ae23ef5c002f5b
:101f9c0041d00233ea580023b4218c4633e00129a6
:101fac000ad1a278e3781b021343012b05d1bf336e
:101fbc000022c254002100e00121280002f022f985
:101fcc0003b0f0bd0121f8e7027880235b42134394
:101fdc000370a278ac23c2540021eee7b83306326a
:101fec00c25402f0c3f8ad230022ea54eb78073256
:101ffc00934304221343eb700021dee70133dbb281
:10200c000432bb4207d011684e79a0788642f5d1d4
:10201c0060462950f2e7a278ad23ea54280001f07b
:10202c002dfdeb780722934305221343eb70a27826
:10203c0001ab1a70d523eb5c0021012bbdd1d7333a
:10204c00eb58002b23d0dc22aa5801a90a20984770
:10205c000021b2e7a278e3781b021343012b0fd0c7
:10206c000121022ba9d102780c331340022ba4d1ed
:10207c0063798370437801221343437000219ce7fa
:10208c00bf330122c254002197e7002195e70021bc
:02209c0093e7c8
:020000040000fa
:02209e00704789
:020000040000fa
:1020a000f0b5c64600b506000f0015001c0006abd3
:1020b0001b78002800d073e0012252420a60404a97
:1020c000127c002a00d16ee0002c00d16ee09a074d
:1020d0000ad53b4bd989a14200d96ae0200000f023
:1020e00037fb641a022101e001211940344b5a6b7d
:1020f0009b6a9a4260d2334b5b78012b05d06024f7
:102100006442200004bc9046f0bd2e4b00225a7061
:102110002d4b1b7a5bb2012b10dd2b4a2c23d3569f
:10212000012b0add5023d3560226012b06dd254b59
:1021300001225a7080246442e3e70126224af0001b
:1021400083199b009846904483199b009d504346f9
:102150005c600023444663611c4be3604646217487
:1021600002f0e8ff164c636b0133636302f0e6ff95
:102170003e60217b2068424602f028fd041e03d108
:10218000104b01225a70bce702f0d4ff0c4a536b8b
:10219000013b536302f0d2ff01235b423b60efe758
:1021a00078246442ade776246442aae77e24644240
:1021b000a7e77e246442a4e780246442a1e7c046e6
:1021c000cc0700208c090020c0060020f93b00004d
:020000040000fa
:1021d00030b583b0002800d081e0444b1b78002b41
:1021e00000d07fe0414b01229a731a7020301a54bc
:1021f0004c685c62c87b58720020587098631871f4
:102200008d7a9d72cd7add720d7b1d734d7b5d7372
:10221000d87022705a6a013093780342fcd10a23a5
:10222000d370334b1b685b0b0193019a1f23134040
:102230001f2b33d02d4a526a108d9b010343138507
:10224000019b9b05db0e1f2b2ad0108d03431385aa
:10225000019bdb045b0f072b24d0108d1b03034372
:1022600013850b7a002b03d01378042003431370db
:102270001e4b5b7a012b17d01c4a516a0b78022047
:1022800003430b70516a02228b781342fcd1174a28
:1022900020230221d154002003b030bd1a3bc9e7ee
:1022a000023bd2e7043bd8e7104b5a6a1800503083
:1022b00050623c22002098540a6a1a645a6a1389b0
:1022c0000c308343897b032906d09bb21381002104
:1022d000064802f00ffacfe701310b43f5e7012082
:1022e0004042d9e701204042d6e7c0460004002022
:0422f00024608000e6
:020000040000fa
:1022f400f8b5ce46474680b5060088460f240c4004
:10230400022c00d97ce0431c00d17ce0476a230006
:1023140010339b00c3185d68c378002b10d1837bf6
:10232400012b05d07f2040420cbc90469946f8bd55
:10233400002383730a20305602f080f9814601e0bd
:1023440000239946002c2dd182235b00f722fa54f6
:102354000823ff33783afa54eb790227bb43eb7135
:10236400043c2100280002f051fbeb7bbb43eb73e0
:1023740028000830210002f049fbf3780020002bec
:10238400d2d14b46002b09d0b37a5ab2002a05dbce
:102394001f221a40012393401c4a13600123b37384
:1023a4000020c1e743465bb298461b110820184041
:1023b4002818c37902229343c3710421494202f0cd
:1023c40025fb4346002b0ddb64013c1982235b0093
:1023d4001022e2540822ff322021a154073aff3a86
:1023e400e254cae764013f1982235b002022fa54b5
:1023f4000822ff324021b954063aff3afa54bce7a6
:102404007c20404290e77d2040428de700e100e0df
:020000040000fa
:1024140070b582b0040016006b460022da710e29f2
:1024240001d002b070bdec2545433f4bed18b279a5
:10243400f3791b0213432a00e03213802b00e433a8
:102444001b681b6c7231e86998473378db06db0e36
:10245400dab2012a2cd05bb2002b09d0022a38d080
:10246400032aded132000e21280002f08cfad8e7cc
:102474003278602313400cd152b2002a04db3100bd
:102484002800fff769fdcce73100280000f062fa6c
:10249400c7e7402b06d0202bc3d10121280001f02f
:1024a400b5febee732000e21280002f06cfab8e750
:1024b400327860231340402b05d031793200280054
:1024c40001f0b8fdade731793200280001f0b2fd2a
:1024d400a7e7317900290ad1337860221a421bd147
:1024e4006b46d9793200280001f0c6f999e76b46aa
:1024f400da1d280001f0a2ffec2363430a4ce41820
:10250400e27807231340052b01d10028e4d10121ef
:10251400280001f07bfe84e76b46d979320028005d
:0c25240001f088fd7de7c0463405002072
:020000040000fa
:10253000f8b504000d0016000823c356002b7dddfe
:10254000092979d88b003e4ad3589f464378042204
:1025500093434370e427c3591b6c0021c06998471b
:10256000e3591b6c8021e0699847200001f004fecc
:10257000e3595b6a1021e0699847e3591f6a4023d9
:1025800000228021e069b8479023e356022b07dc44
:1025900022008832e423e3589b6b0021e0699847ce
:1025a000e3780722934303221343e370e423e358c1
:1025b0001b69e0699847072303405b0020780e22df
:1025c000904318432070e2680e231840022816d06a
:1025d000b0239168e1501279023be254ad2300220e
:1025e000e254d523e35c012b28d1d733e358002be9
:1025f00024d0dc22a2583100280098471ee0a233e4
:102600005169e150127c023be254e7e7437804222f
:1026100093434370e5e74378042213434370e0e7b4
:10262000c3780722934301221343c370d9e7c378c9
:1026300007229343c370d4e7002dd2d1f8bdc04622
:04264000b84a000094
:020000040000fa
:10264400002243088b4274d303098b425fd3030aed
:102654008b4244d3030b8b4228d3030c8b420dd300
:10266400ff22090212ba030c8b4202d3121209028e
:1026740065d0030b8b4219d300e0090ac30b8b42cc
:1026840001d3cb03c01a5241830b8b4201d38b037a
:10269400c01a5241430b8b4201d34b03c01a52411f
:1026a400030b8b4201d30b03c01a5241c30a8b4262
:1026b40001d3cb02c01a5241830a8b4201d38b024d
:1026c400c01a5241430a8b4201d34b02c01a5241f1
:1026d400030a8b4201d30b02c01a5241cdd2c30963
:1026e4008b4201d3cb01c01a524183098b4201d3df
:1026f4008b01c01a524143098b4201d34b01c01aca
:10270400524103098b4201d30b01c01a5241c30841
:102714008b4201d3cb00c01a524183088b4201d3b0
:102724008b00c01a524143088b4201d34b00c01a9c
:102734005241411a00d20146524110467047ffe708
:1027440001b5002002f016fd02bdc0460029f7d0f5
:0427540076e770476d
:020000040000fa
:10275800f8b5ce46474680b506000d000f240c405c
:10276800022c00d96de0431c00d16de0476a2300bc
:1027780010339b00c3185b689846c378002b10d1b0
:10278800837b012b05d07f2040420cbc90469946a4
:10279800f8bd002383730a20305601f04dff8146af
:1027a80001e000239946002c29d06db2002d42dbb0
:1027b800083464013c19102363712d1108231d404e
:1027c800454403214942280002f01ef9eb79022210
:1027d8001343eb71f3780020002bd6d14b46002b26
:1027e80009d0b37a5ab2002a05db1f221a40012306
:1027f8009340174a13600123b3730020c5e70623eb
:10280800ff332022fa54103afa54033c2100404680
:1028180002f0faf802254346db792b434246d3718e
:1028280040460830210002f0eff84346db7b2b439b
:102838004246d373cee7083464013f1920237b71e5
:10284800bbe77c204042a0e77d2040429de7c04690
:0428580000e100e0bb
:020000040000fa
:10285c00f0b5d6464f464646c0b5002867d100298c
:10286c0068d08b69002b68d0354b01301872002270
:10287c001a83da780724a243da708a69da600e8a3e
:10288c001e824d695d610c7f0722144024011a7869
:10289c007027ba439246002291460027b846c027bb
:1028ac004246da555246224382437f2422401a7014
:1028bc005a785b3ca4469c44643467461f510434ec
:1028cc0040271f510c341855083c4f461f550434f3
:1028dc001c4f1f5108341b511b4c1c679b677424e5
:1028ec0018558243033082435a70d4224846985478
:1028fc001032486a9850498c04329952002e10d0ec
:10290c0000241e0005e010350134e4b2338aa342e2
:10291c0007d9eb68002bf6d01b69002bf3d0984736
:10292c00f1e700201cbc90469946a246f0bd012060
:10293c004042f7e701204042f4e701204042f1e732
:0c294c0034050020552a0000d93c000092
:020000040000fa
:1029580030b583b005000c00002301934b78062b9b
:1029680014d0082b5ad0002b3bd1bc2143520378fa
:10297800db07c022805cbf3a02405200db0f1343e2
:102988006b542b00bc33019302204be0c068cb781a
:10299800072b57d89b002c4ad3589f462a780e23da
:1029a8001340022b03d003680193122032e0c3685e
:1029b800019312202ee08b78ae22aa5c9a4210d99d
:1029c800b022aa589b009b58002b0ad001939a78f2
:1029d800d8780002104325e02a7870231340102b82
:1029e8002ed00121280001f00ffc29e02a7870235d
:1029f8001340102bf5d1023b1a40022a03d0436a38
:102a080001930a2006e0036a01930a2002e001aa62
:102a180000f0a6fe0199002905d1e2e70300ad33d5
:102a2800019301200199a279e3791b0213431a1c2f
:102a38009bb2834200d9021c92b2280001f052fcda
:0c2a480003b030bd0020e5e7744d000035
:020000040000fa
:102a540070b505000823c3569a1c41d04469022b63
:102a640007d04268002a42d1c423e25400210f2631
:102a74001ee0c233e35c002b0ed02300c433db68ba
:102a8400002b09d0d822a558ab422ad02200c43248
:102a9400908800220c219847c4230122e254230089
:102aa400c433284ada60228b9a80210024310e260e
:102ab4002300c433db68d822a558ab423cd02200a3
:102ac400c43290880a00310098478c234022e25097
:102ad40022008832e0695833e3589b6b0021984701
:102ae40070bddc23e25800210c20a847d4e7c4239e
:102af400e35c002b1dd02300c43358789b788342b9
:102b040002d800210d26d3e7cc23e358181821005e
:102b1400243102f070fa2200c4326b6851785b18d9
:102b2400dbb253709278002101269a42c0d80c3649
:102b3400bee700210126bbe7dc23e2583000a847aa
:082b4400c3e7c04615240000a0
:020000040000fa
:102b4c00f0b5d6464f464646c0b50600431c45d0a8
:102b5c00ec224243334b9b181b7a5bb2002b3dddbe
:102b6c00ec2242432f4b9b18d4331b78002b1cd0e8
:102b7c00012b33d1ec2242432a4b9b181b8a9846db
:102b8c00002b2bd0274bec224243d75c3f077f0f07
:102b9c009b181a00ad32127891465d690024ec2323
:102bac004343204ad618b24625e0ec2343431d4c40
:102bbc00e4182300e8331888043b1b681b680f21ba
:102bcc009847e061431c09d0ec237343154ef6186b
:102bdc003300d43301221a70022333721cbc90468a
:102bec009946a246f0bda888984710350134e4b246
:102bfc00a3b24345f2d22b783b42f6d06b784b45cf
:102c0c00f3d1f27807231340052beed153465b78b2
:102c1c005b07ead4eb68002be7d0db68002be2d132
:082c2c00e3e7c0463405002077
:020000040000fa
:102c3400f8b5354c256b63689b699847606160699a
:102c440002f01ef8040002f0dff8002d52d02e4de1
:102c54002c22ab5c0133ab54200001f081fd2c6bc2
:102c6400002c06d0a368002b03d101250027264e93
:102c740011e0264d00242e0021e0e06901f03efc25
:102c8400e368002b01d020699847346b002cf0d006
:102c9400a368002bedd125756575a378002b02d1af
:102ca400e368002be9d1200001f0e0f8a378002bc1
:102cb400e6d16770e4e701342035052c15d06301b3
:102cc400f3185b7d002bf6d0630110498c466344f6
:102cd40000215975ab78012bedd1620162446b6818
:102ce4009360280000f014f8e5e707492c228b5c78
:102cf400013b8b5402f01cfa040000f09df9200003
:102d040002f01afaf8bdc046cc08002020060020c4
:020000040000fa
:102d1400f0b5de4657464e464546e0b585b0814699
:102d2400002854d0304b196b83689a4600290cd084
:102d34008b6852460392002290469a4549d300225a
:102d440000238b460092019306e052468260264b94
:102d54001863012034e0e3465e46b668340000257b
:102d6400009a019b12196b41009201935e46b66969
:102d7400b446002e12d06646b66800210f00009ab1
:102d8400019bb6185f41474529d8e4d1039b9e4275
:102d9400e1d960465946009a019b01e0300059464a
:102da4004c46a0618c61002051468a1a4b469a60b9
:102db4009b69002b04d04a4691689a68521a9a601b
:102dc40005b03cbc90469946a246ab46f0bd0020f7
:102dd400f6e7054b1863816100220120e4e76046b1
:0c2de4005946009a019bdbe7cc08002058
:020000040000fa
:102df00070b504009a22520042432e4b9b18203398
:102e00001b785bb2002b0fdd9a2252004243294b04
:102e10009b189b6b002b07d09a2252004243254bf4
:102e20009b185d7a012d00d070bd9a22520042435a
:102e3000204b9b181b6c002b1ed0984706009a2233
:102e4000520062431b4b9b183c331b788342ebd0f0
:102e500001281ad09a2252006243164b9b181b7904
:102e6000002b1fd1134dad1800220921686bab6bed
:102e7000984701232b7115e09a22520042430d4bd3
:102e80009b183c331b78012bced09a235b00634305
:102e9000084ef61800220821706bb36b9847002388
:102ea00033712e009a235b006343024ce4183c34d8
:082eb0002670b9e700040020c0
:020000040000fa
:102eb800f0b40125ed070c005c402c40a446ae0a96
:102ec8004c18df18f4423dd2f74245d2640d4cd07d
:102ed8007f0d3cd0e41bc9022943cf0adb022b43f8
:102ee800db0a0600b61a9f4104d2013cb6197f419d
:102ef800b6185f416812800d241838dd0018844226
:102f080025d8e80c0021b6197f41b61a9f4103d392
:102f180040414941f7d304e0b6185f4100184941e0
:102f2800f1d32405b6197f41b61a9f4105d337431b
:102f3800c20717430022012f5041614162461143e5
:102f4800f0bc70470cd100280ad1f74208d2002003
:102f5800c143490d0905f1e7002a01d1f74206d01e
:102f68000020c143090dc904eae77f0df8d000200d
:042f78006146e5e7e2
:020000040000fa
:102f7c00f0b583b006000d0001921f0008ab1c7861
:102f8c0001f020fc002845d0244b1b785bb2022baf
:102f9c0006d00124644201f093fc200003b0f0bd84
:102fac00002d31d0b54232d31d4b1b78002b0bd0ea
:102fbc001c4b01221978002908d001322033052a34
:102fcc00f8d101246442e6e70022154b0121197067
:102fdc0000215970197559759c705d600199d96003
:102fec001f61ad1b9d60104909880c041204120c62
:102ffc001443dc61013189b20c4a914202d00a4a75
:10300c001180c8e70121fae701246442c3e70124d7
:10301c006442c0e701246442bfe7c046cc080020ec
:10302c00200600204006002076090020ffff00004b
:020000040000fa
:10303c00f0b5c64600b52a4b1a6b59691961002abe
:10304c0042d09168274b994234d9254b5b690025b6
:10305c001c00244a0023a4185d41214b98465b6850
:10306c009b6998470027060043461b69834203d996
:10307c001d4a0023b6185f41194b196a00230a0038
:10308c0092197b41ab4202d827d1a24225d98e1985
:10309c00134bde61124bdb691b0402d1104b012276
:1030ac00da610f4bd86980b25b685b69984704bce6
:1030bc009046f0bd91680a4b5b6900251c0000230b
:1030cc000a00a4185d41c8e7054b5b6900251c008c
:1030dc00044a0023a4185d41bfe7014bdc61d9e72a
:0c30ec00cc080020ff7f0000ffff000068
:020000040000fa
:1030f80030b583b00d0007a90c78002810d12849f5
:10310800506888621068c86292680a6300224a633d
:103118008a63ca63234a0a64042c03d0052c13d09b
:1031280003b030bd1e4a1560089a5279022a04d0ad
:103138000a2af5d11a4a1371f2e7089a9279022af3
:10314800eed1174a9374ebe7089b9a78d409d9789b
:1031580003230b40022b08d0032be1d163001c1979
:10316800640014340e4b1c1905e0013463001c196b
:1031780064000b4b1c19089b1b79089949790902b3
:10318800194322706180089bdb789b079b0f009195
:103198000021280001f04dfc01232371c0e7c0463f
:0831a800cc0700206c09002097
:020000040000fa
:1031b00030b405004d400124e407254042004b0097
:1031c000120e32d01b0e3cd0ff2a33d0ff2b3fd043
:1031d000d21800022043000a09022143090ac4b29e
:1031e0004c43000ac3b24b43000a4843210a5b1810
:1031f000190a091801d44900013a080a7f3a2adb62
:10320000fe2a0fd2d2051c43240601d001242143fb
:10321000c9b280295041802901d14008400028438b
:1032200030bc7047ff20c005f9e71b0eff2b0ad00a
:103230002800f5e7400206d1ff2bf3d1490202d165
:10324000f0e7ff2af4d17f2000010c300005e7e70a
:103250004902f8d1e6e743020132e9d15b120233b9
:08326000e6d9d805e4e7c046f9
:020000040000fa
:103268004b005b0d264af0b55c1e944238d8254abf
:103278009e1825d4332e22dc234a9b1827d4234ab0
:10328800da400700214b9743f3403c000f0002400f
:103298009f4319403d000a430fd0002f0dda202329
:1032a8005b42f11824d480204003c84002008021ea
:1032b8004903f1400b00a4185d4120002900f0bd2e
:1032c8000020002901db0021f9e71149f7e7202256
:1032d8000e4b921b934001225242f2401a43d0e710
:1032e800002becd10022c90fcb0710001900e6e72c
:1032f80020218020891b400388400200d7e7c04670
:10330800fd07000001fcffffe1fbffffffff0f00cf
:043318000000f0bf02
:020000040000fa
:10331c0070b50d1e40d0002841d1224c342301221f
:10332c00e2540b686360db6898470100e0601e485c
:10333c00fff782f90100c820fdf7b6ff02302062ca
:10334c000423eb56237200232361184aa261184a06
:10335c00e2616362a36223632c22a35463681b683b
:10336c0000211448984763681b69002b02d00d4a52
:10337c00108b98470b4ce06980b263685b69984787
:10338c0063685b689847a02200210b4801f06afe35
:10339c0002232370200070bd01204042fbe7012076
:1033ac004042f8e7cc080020006cdc02ffff000074
:0c33bc00ff7f0000352c000020060020e0
:020000040000fa
:1033c80070b505000c00431c41d0002942d00823e9
:1033d800cb56012b41ddc378002b0dd1837b012b0c
:1033e80002d07f20404270bd002383730a202856f4
:1033f80001f022f9060000e00026fe2323720023d4
:103408006360e369002b0ed0a2699a61a369002b5f
:1034180001d0e269da610023e361a361e368002b6c
:1034280001d020009847eb780020002bdbd1002e3c
:1034380009d0ab7a5ab2002a05db1f221a400123b1
:103448009340074a13600123ab730020cbe77d202c
:103458004042c8e77d204042c5e77d204042c2e7a0
:0434680000e100e09f
:020000040000fa
:10346c001e4b00229a619a8c80218a439a841a00fe
:10347c001023d1680b42fcd0194b1a68920e3f2acc
:10348c002ad0184b1b689b059b0d92021343134ac1
:10349c0093621023d1680b42fcd0104b02229a8409
:1034ac001a001023d1680b42fcd00f4b0f4a5a6004
:1034bc001a0053785bb2002bfbdb0b4b0c4a5a8087
:1034cc000c4a5a800c4a5a800c4b842252021a62c3
:1034dc00024b00221a627047203ad2e700080040e3
:1034ec002460800028608000000c00400007010070
:1034fc00064000001b4000001e400000000400407d
:020000040000fa
:10350c0030b5882933d015dc812941d003dc8029e2
:10351c003ed0002030bd822911d08429f9d11c68fd
:10352c0002cc1c60002a1ed009b20160c917416090
:10353c000120efe7a02923d00adc9029e9d1072448
:10354c0019680731a14330c9196004604560efe781
:10355c00c02901d0f029dcd11a68111d196013683b
:10356c000360002312e089b201604260e0e71c684e
:10357c0002cc1c60002a01d049b2d6e7c9b2f3e7ed
:10358c001a68111d196013680360db174360cfe7dd
:10359c0019680c1d1c600b680360002ae5d0f4e769
:020000040000fa
:1035ac0070b504000f230b4049b2022b2ed8421cdd
:1035bc002fd010339b00c3185d68091108231940e4
:1035cc006d18c378002b29d1837b012b02d07f206f
:1035dc00404270bd002383730a20205601f02af864
:1035ec00060002214942280001f00cfae378002b76
:1035fc0012d1002e1bd0a37a5ab2002a17db1f223d
:10360c001a40012393400c4a136010e07c20404286
:10361c00dfe77d204042dce70020dae70221494267
:10362c00280001f0eff9e3780020002bd1d1012321
:0c363c00a3730020cde7c04600e100e0d1
:020000040000fa
:10364800803d0000803d00009a3d00009a3d00004a
:103658009a3d00009a3d00009a3d00009a3d000006
:103668009a3d00009a3d00009a3d00009a3d0000f6
:103678009a3d00009a3d00009a3d00009a3d0000e6
:103688009a3d00009a3d00009a3d00009a3d0000d6
:103698009a3d00009a3d00009a3d00009a3d0000c6
:1036a8009a3d00009a3d00009a3d00009a3d0000b6
:1036b8009a3d00009a3d00009a3d00009a3d0000a6
:1036c800503d0000603d0000703d00008a3d000054
:020000040000fa
:1036d800f0b5c6461f4a204b00b50021934203d2dd
:1036e800197001339342fbd10b231c4a9c46083bbb
:1036f80098461368546819000026214311d0170012
:1037080091680c3700290fd11a19002c03d01e70ac
:1037180001339342fbd13a001368546819002143de
:10372800edd104bc9046f0bd6146c91a1d19511867
:10373800002c05d05a1c505c187013009542f9d122
:10374800434623405a1e9341a4081c19a4003f195c
:103758003a00e1e70000002000000020941c00006f
:020000040000fa
:10376800f8b5ce46474680b50d0090468e78c469b8
:1037780027683b78023bdbb25a0891460022012bae
:1037880005d9007e01384946fdf790fdc2b20020f8
:10379800b24203d20cbc90469946f8bd002e03d124
:1037a80043461f603878f5e72a796b791b021a437c
:1037b8004b4698b20028edd07b88934211d004374d
:1037c800012301339bb298420dd30237b91e0988f1
:1037d8009142f6d173439b001b59424613601878f7
:0a37e800d8e70123f6e70020d4e73c
:020000040000fa
:0237f200fee7f0
:020000040000fa
:1037f40070b50400431c02d00378002b00d170bdc7
:10380400456a1021fef784f9e378002b20d1a37bcd
:10381400012bf4d10026a6730a20205600f00effd7
:10382400a671134bab82ae722b89012213432b81f9
:10383400e378002be3d1002816d0a37a5ab2002ae9
:1038440012db1f221a40012393400a4a13600be043
:103854000023a371064aaa82ab722b890122134367
:103864002b81e378002bcad10123a373c7e7c04699
:08387400ff03000000e100e089
:020000040000fa
:10387c0070b5040011795378002b14d1bc25435337
:10388c00e433c3585b6bc069984701230340605d08
:10389c0001229043184360552100bc3101322000b5
:1038ac0000f01efd70bd012b07d0032b14d00c2b88
:1038bc00f8d1012100f0a6fcf4e79078d3781b0234
:1038cc000343efd1e433e358db6ae0699847002106
:1038dc00200000f097fce5e79078d3781b020343b7
:1038ec00e0d1e433e3589b6ae0699847002120005b
:0638fc0000f088fcd6e795
:020000040000fa
:02390200fee7de
:020000040000fa
:1039040010b5082909d889001d4841588f46190067
:103914000d311868072200f0e7fc10bd591d186826
:10392400072201f0e1f9f8e71178c907c80f197dfa
:103934000124a143014319751278022111401a7d13
:10394400022082430a431a751868002100f05efcc5
:10395400e3e712889a841868002100f057fcdce73a
:1039640020210120585452681a63d6e718680021b0
:1039740000f04cfcd1e7212201219954cde7c04647
:043984003c4c0000b7
:020000040000fa
:103988001c4b01221a701a00537e5bb2002bfbdb22
:10399800194b1a68194b596849011b68db0e0b4310
:1039a8000721114049010b435201e021c9000a4097
:1039b800ff210b401a430f4b1a850322da70023a93
:1039c8005a700f4a1a611a00537e5bb2002bfbdb58
:1039d800084bc02292009a801a00537e5bb2002bdb
:1039e800fbdb044b0f221a761a00537e5bb2002bc6
:1039f800fbdb7047004000422460800020608000ac
:043a08001118000091
:020000040000fa
:103a0c0010b50400431c09d09a2252004243194bb2
:103a1c009b1820331b785bb2022b00d010bd9a226e
:103a2c0052004243134b9b189b7a5ab2002a07db75
:103a3c001f221a40012393400f49c02252008b5081
:103a4c009a22520062430b4b9b180122da705b7a6c
:103a5c00012b07d09a235b006343064ce418002328
:103a6c00e370dbe79a2040006043024bc018fcf780
:0c3a7c002dfbefe70004002000e100e05b
:020000040000fa
:103a8800f0b5de464f464646c0b586b00490b4232e
:103a9800c458a278e3781b021343994628d000261d
:103aa80000239846059300250ee0a0780590e3785a
:103ab8009846049900f083fb060008e02378ed1887
:103ac800adb2e418a94513d96778042fedd0002ebc
:103ad800f4d0f368002bf1d0b268b0880294019753
:103ae800414600911b689b46059b0499d847e5e72a
:0c3af80006b01cbc90469946a346f0bde9
:020000040000fa
:103b040010b50a2807d88000184b1b589f46184a3e
:103b140022230121d15410bd164b8022d2005a61b8
:103b2400134b00221a73f6e70b78012bf3d1104ada
:103b34001373104b8021c90099610f49002001f0d3
:103b440027f9e8e70a4b186801f0acf8e3e7084bfb
:103b5400186801f026f8074b8022d2005a61dae790
:103b6400044b8022d2005a61d5e7c046e4490000e4
:0c3b7400900800200044004105390000ca
:020000040000fa
:103b8000f0b51e00012389b014000e9a07001a40f8
:103b90000291019220d1b4421eda351b03952a000e
:103ba000102d00d91022202104a801f061fa0f2d58
:103bb0001bdc0f22039b04a913401a00380001f0fc
:103bc00018f8019b002b04d122000299380001f063
:103bd00010f8300009b0f0bd22000299380001f061
:103be00008f8b442d9db2600f3e7102204a9380014
:083bf00000f0ffff103ddae7d1
:020000040000fa
:103bf80010b584b041690190436802930823c35605
:103c0800dab2012a07d9da1c1fd0043321d001ab5c
:103c1800a0221a7202e001ab00221a720b015b1893
:103c28009a000e4b9b185a6b013a5a631c6a002c77
:103c380009d00b0159188900084b59184b6a40697b
:103c480001aa0421a04704b010bd01ab9e221a723c
:103c5800e4e701ab9f221a72e0e7c046cc070020d8
:020000040000fa
:103c680010b5002805d10e2904d00f2924d00d291c
:103c780018d010bd154b186813789b0609d55378d2
:103c8800012b0ad9203b032b07d9012100f0bcfaec
:103c9800efe7012100f0b8faebe70c49002000f04b
:103ca8004bf8e6e7094b1c6a002ce2d05b6a00225d
:103cb80008210020a047dce7044b1c6a002cd8d060
:103cc8005b6a002207210020a047d2e7cc0700202a
:020000040000fa
:103cd80070b5050044690823c35602332bd02378f6
:103ce8007f2b0dd86378db071bd5637801229343bc
:103cf8006370a178e423e358db6ce069984710e02f
:103d0800ac23e15c3833e358db68e06998472278f4
:103d18007f2313402370e37807229343042213433d
:103d2800e3700823eb56002b05d16b68002b02d1fa
:083d3800c4330022e25470bd07
:020000040000fa
:103d400010b55378232b28d89b00164ce3589f4678
:103d50000c6a002c18d04b6a00220021a04713e007
:103d60000c6a002c10d04b6a00220121a0470be006
:103d70000c6a002c08d04b6a02320221a04703e0f3
:103d80000868012100f044fa10bd0c6a002cfbd039
:103d90004b6a02320321a047f6e70868012100f0d0
:083da00037faf1e74836000094
:020000040000fa
:103da80010b584291fd007dc812915d0822922d09b
:103db800802911d0002010bd90291cd008dc88294a
:103dc800f8d119680c1d1c600b6803601a7010e0ac
:103dd800a02901d0c029edd119680c1d1c600b6801
:103de80003601a6005e019680c1d1c600b6803600d
:103df8001a800120dfe719680c1d1c600b6803603e
:083e08001a60d2175a60f4e7ba
:020000040000fa
:103e100010b5124b06225a6000f028fdfff726fb72
:103e200001f05af9fef73bf9fff7aefd00f028fb71
:103e30000b490020fff772fa0a4c60600a49002023
:103e4000fef70cfd206009490020fef7c1f9a060d3
:103e500000f01af900f0d4fa10bdc046004000414d
:103e60004451000060090020084b0000184c00007d
:020000040000fa
:103e700010b5164b1a6b002a24d0824205d18369f3
:103e8000002b17d0002208e01a009369002b1bd0ea
:103e90009842f9d18369002b05d084689968091983
:103ea0009960002a08d0836993610023002282610f
:103eb000180010bd1a00f4e7044b1a6b92691a63dc
:103ec0000123f3e70023f3e70023f1e7cc08002008
:020000040000fa
:103ed00070b5040000f07cfc002825d0200000f024
:103ee000effa041e1ed043780025002b12d1836800
:103ef000002b01d1436883600c4a2c23d35c002b38
:103f00000cd1200000f038fa0023237563750133cb
:103f10006370002500f0dafc280070bd2000fef779
:103f2000f9fef1e70125f5e70125f5e7cc080020ca
:020000040000fa
:103f300000230e4a10b513600d4a13600d4a13603a
:103f40000d4a13600d4a13600d4a53621361013329
:103f5000936000f030fd00f02efd0a4c0a4b9c42ad
:103f600000d310bd08cc9847f8e7c046840900206c
:103f700088070020840700207c070020800700209d
:0c3f80008c070020bc000000c000000006
:020000040000fa
:103f8c0070b582b005000e001c1e01d100281ed099
:103f9c00002a04d101246442200002b070bd0d4bf4
:103fac00d8680023002100f017f8fa2292000023b1
:103fbc0000f020fb0100009433002a000020fef7e3
:103fcc00d7ff0400431ce7d0fff77cffe4e7012494
:083fdc006442e1e7cc0800207b
:020000040000fa
:103fe400f0b5ce46474615042d0c2e0080b50704c7
:103ff400140c3f0c9946030c7e435d4367436343b3
:104004007f19340ce4199c46a54203d980235b0232
:104014009846c4444b4643435143250c36046544f7
:10402400360c2404a4195b19591820000cbc9046c2
:044034009946f0bdfc
:020000040000fa
:1040380070b5040008001500210000f0c0f8002841
:1040480019d0c368002b10d09b68002b07d0c4344c
:10405800e3608088a0802a000e21984770bd2a005e
:104068000e21200000f08dfcf8e72a000e21200028
:1040780000f087fcf2e70121200000f0c5f8ede729
:020000040000fa
:1040880010b5104b00221a710121494219601a73a8
:10409800802464425c73a5349c730024dc731c7414
:1040a8009a740820d8749961d9610231183019546a
:1040b8000130195421315a54034a9a62034ada6288
:1040c80010bdc0469008002000000020000200201b
:020000040000fa
:1040d800f0b50f0087b0039015001049072204a817
:1040e8001c0000f086ffbb687e6802933f68002dc5
:1040f80000d104ad002c03d1280000f0bdff04005e
:10410800002e02dbb44200d934000097029b220043
:1041180029000398fff730fd07b0f0bd5c5100009f
:020000040000fa
:1041280030b51500012289b0524201920432ff32a3
:104138000292002800d16846002403900491a1420d
:1041480000d04c1e0594002906da4f220120074ba7
:1041580040421a6009b030bd0022079002700690f4
:104168001a00290001a800f0c9fef3e78809002019
:020000040000fa
:10417800f0b5c64600b506783607760fad23c35ca2
:104188009846078a4569002f16d0002405e01035a7
:104198000134e4b2a3b2bb420ed22b783342f6d03c
:1041a8006b784345f3d1eb68002bf0d05b68002bac
:0e41b800edd0a8889847eae704bc9046f0bd19
:020000040000fa
:1041c600f0b50d8a4a690c782407640fad23ce5cde
:1041d600002d18d0002305e010320133dbb299b26e
:1041e600a9420dd211782142f6d05178b142f3d1cd
:1041f60091788142f0d8d77879188842ecda00e0d5
:0a42060000221000f0bd0022fbe7cb
:020000040000fa
:1042100010b50c0000f016fe00281bd0c4230022ad
:10422000c254012c0dd00023436683660200643221
:10423000c469e433c3589b6b802120009847002059
:1042400010bdc2692033c3589b6a80211000984773
:0a4250000020f5e775204042f2e778
:020000040000fa
:02425a00fee77d
:020000040000fa
:10425c0010b5064c2378002b07d1054b002b02d050
:10426c00044800e000bf0123237010bd3409002076
:10427c000000000000000000044b10b5002b03d020
:10428c000349044800e000bf10bdc0460000000018
:08429c003809002000000000b9
:020000040000fa
:1042a40010b50a4b98470a4b9847fff713fa094b86
:1042b400ff229343084a9360084b9847084b98475a
:1042c400084b984700f0f8fefee7c0463343000071
:1042d400334300000000000000ed00e0313f000027
:0842e4003343000033430000e6
:020000040000fa
:1042ec0070b50d00140000f0a7fd002818d00200d6
:1042fc00643245668466e023c35aa34205d006d9ce
:10430c00030064330121197401e002211174c469a2
:10431c00e423c3589b6b802120009847002070bd7c
:06432c0075204042fbe792
:020000040000fa
:024332007047d2
:020000040000fa
:1043340009024300020100c0320904000001020224
:1043440001000524002001042402020524060001c2
:10435400052401000107058103100002090401007e
:10436400020a00000007050202400000070582025d
:044374004000000005
:020000040000fa
:1043780070b505000e4c63689b6998476061606979
:1043880000f07cfc040000f0e9f9200000f03afda0
:104398002800fef7bbfc002800d170bd00f0c6fe67
:1043a8000400fef747fe200000f0c4fef5e7c04613
:0443b800cc0800200d
:020000040000fa
:1043bc0041008c46012212068a420bd80909382387
:1043cc001b06c918c30fdb07194340076346da42c3
:1043dc0004d27047c10fc9070020704703d138239e
:1043ec001b06c918704738231b06c9180122d204b2
:0443fc0011437047b2
:020000040000fa
:10440000bff35f8f62b60c4bc12080001a581202b6
:10441000120ac02109060a431a5080221a600c3081
:104420001a5806491140c02212040a431a50802229
:10443000d2021a607047c04600e100e0ffff00ffb3
:020000040000fa
:1044400030b5b423c0588378c5782d021d4315d0ec
:10445000002307e08478147004781b199bb20019bc
:104460009d4209d94478042cf4d0052cf4d18478e9
:104470008c42f1d1012000e0002030bd0020fce79b
:020000040000fa
:104480000c4b01221a801a00d37b5bb2002bfbdba2
:10449000084b60221a80084a1a833b229a73074a03
:1044a0000021116020225a731a00d37b5bb2002bcb
:1044b000fbdb7047002c004280bbffff7809002027
:020000040000fa
:1044c000431e033314d803041b0c042b13d85901c7
:1044d0000a4a5218d169002281420ad15a01074979
:1044e000515c0022002904d05b01044a9a1800e0c4
:1044f0000022100070470022fbe7c0462006002083
:020000040000fa
:1045000010b5040000f064f9002817d02000fff770
:10451000d7ff041e10d04378002b08d10023237549
:1045200063752370002400f0d1f9200010bdfff75f
:104530009ffc00236370f1e70124f4e70124f4e712
:020000040000fa
:1045400030b401256d054c00e54215d85c00e5420c
:1045500012d80c001c436400044314430cd005d251
:1045600082428b418041404230bc70479042994129
:104570008041404230bc7047002030bc7047c0468c
:020000040000fa
:1045800030b401256d054c00e54215d85c00e542cc
:1045900012d80c001c436400044314430cd005d211
:1045a000904299418041404230bc704782428b41e9
:1045b0008041404230bc7047002030bc7047c0464c
:020000040000fa
:1045c000030010b51a78202a0dd0110009390429ea
:1045d00009d900212b2a02d02d2a01d10131013322
:1045e00000200a2404e00133ece760430133801a21
:1045f0001a78303a092af8d9002900d1404210bd72
:020000040000fa
:10460000002b11d1002a0fd1002900d1002802d09f
:104610000021c943081c07b4024802a140180290b7
:1046200003bdc046550b000003b4684601b50298af
:10463000fdf70ef8019b9e4602b00cbc7047c046c9
:020000040000fa
:1046400070b5050000f0d0fc0024002d0fdb0a49f6
:104650000a681f232b40da400134144001229a409b
:10466000130080228b50bff34f8fbff36f8f00f08a
:0c4670006cfc200070bdc04600e100e0c2
:020000040000fa
:10467c00002813d10c4b1b7a5bb2022b11d10a4ac6
:10468c00d433d35c002b02d0012040420be010004d
:10469c000133d6228354013a835404e00120404272
:0c46ac0001e0012040427047340500206e
:020000040000fa
:1046b8001c2101231b04984201d3000c10391b0a4a
:1046c800984201d3000a08391b09984201d300090e
:1046d800043902a2105c40187047c0460403020265
:0c46e800010101010000000000000000c2
:020000040000fa
:1046f4004b005918094b0a019a1842644a1c1201ca
:104704009a188264023109015918c164044b036187
:10471400044b436100238371c37170470409002073
:084724001008002050080020dd
:020000040000fa
:10472c0070b5002800d070bd0a4c2568a11d28006a
:10473c0000f0f8fa21000c31280000f0f3fa210007
:10474c001431280000f0eefa21001a31280000f094
:08475c00e9fae8e7cc070020b0
:020000040000fa
:104764000c4b1b6b002b11d000280fd0002107e04d
:104774009a68801a99609b69002b07d0002805d09d
:104784009a688242f4d39a68101a9860014b5a6965
:084794001a617047cc080020f7
:020000040000fa
:10479c0034034d006900630072006f006300680011
:1047ac0069007000200054006500630068006e0012
:1047bc006f006c006f0067007900200049006e00ec
:0447cc0063002e0058
:020000040000fa
:1047d00010b50b4a2c23d35c0120002b04d13433b9
:1047e000d35c0020012b00d010bd13003422002127
:1047f000995408201856fff723ff0120f4e7c0461c
:04480000cc080020c0
:020000040000fa
:10480400f4464a1805d200f091f801d5c0174008c3
:10481400604701235b05d34206d200f087f801d537
:104824000120c0074042604701d10042f5d0d017b3
:044834004008704781
:020000040000fa
:10483800f0b5050000200a4c4200165d002e02d19a
:10484800a2185078f0bd296801300f78c0b2b7427d
:1048580003d1a2180131507829600a28ecd9f1e770
:04486800284e0000d6
:020000040000fa
:10486c000a4b8822d2001a60002246215a54013188
:10487c000620585403315a5401320e315a54013126
:10488c005a543b320d3199547047c0460044004194
:020000040000fa
:10489c002e03530069006d0070006c006500200051
:1048ac00430044004300200044006500760069008a
:1048bc00630065002000440065006d006f00c04679
:020000040000fa
:1048cc00094b1b7a5bb2002b05db1f221a4001231c
:1048dc009340064a1360044a2c23d35c002b02d16c
:1048ec0034330121d1547047cc08002000e100e0a2
:020000040000fa
:1048fc0070b4012676054c005d00e6420cd8ee4201
:10490c000ad825430543154303d0994204d190425c
:10491c0002d1012070bc7047002070bc7047c046ab
:020000040000fa
:10492c004a0010d2520d03231b02ff33d21a0ad4b1
:10493c0052421f3209d4400dc90208430123db0740
:10494c001843d040704700207047d0177047c046be
:020000040000fa
:10495c000f230b400022022b0dd8421c0dd010331c
:10496c009b001b185b6849b20911082211405b18a7
:0e497c00d879073a0240100070470022fbe78e
:020000040000fa
:10498a0070b50d001100d823c4580300c433dc608d
:10499a00028b9a80d523c35c012b00d070bd002cfa
:0c49aa00fcd0db33c2582800a047f7e720
:020000040000fa
:0249b600704748
:020000040000fa
:1049b800744f000001000000685100000000000072
:1049c800000000000000000003000000f05000009c
:0c49d800000000000000000000000000d3
:020000040000fa
:1049e4001a3b00001a3b00001c3b00001a3b00006d
:1049f400643b00001a3b00001a3b0000123b00001d
:0c4a0400483b0000523b00002c3b00002f
:020000040000fa
:104a100070b506000d00002804d00468002c05d1f4
:104a20000023336070bda469002cf9d02572e368bf
:0a4a3000002bf8d020009847f5e7ae
:020000040000fa
:104a3a00f8b514001d0000f000fa00280ad0069b01
:104a4a009bb2c769e4228258166a2a0021003800fc
:0a4a5a00b047f8bd7c204042fbe7a6
:020000040000fa
:104a6400002380290fdb812901dd83290bd1072154
:104a7400136807338b431900083111601a685b68a7
:0a4a84000260436001231800704730
:020000040000fa
:104a9000002809d1074b5b78002b08d1054801336a
:104aa000437000238363704701204042fbe70120ed
:084ab0004042f8e70004002079
:020000040000fa
:104ab80038260000382600004c2500000c2600008f
:104ac8001626000038260000382600003c26000084
:084ad800202600002e2600003c
:020000040000fa
:104ae00070b50d00140000f0adf9011e09d0d823f7
:104af000c5500433c450c0690833cb589b68014a81
:084b0000984770bd312500004b
:020000040000fa
:104b0800000000000000000000000000000000009d
:104b18000100000050500000b849000002000000e9
:084b2800000000002c07002032
:020000040000fa
:104b3000084b1b7b0020002b0bd1064b01221a7166
:104b4000012149429961d96121315a5401315a54a4
:084b50000130704790080020bd
:020000040000fa
:104b5800c20f12029d3201000cd001d5494202d485
:104b6800013a4900fcd5d205080a0906494100d393
:084b7800012950417047c046bd
:020000040000fa
:104b8000431c0ed00f230b4010339b001b185b6897
:104b900049b20911082211405b18d8798007c00f6b
:064ba00070470020fce755
:020000040000fa
:104ba60010b500f04cf9041e0cd0e423c358db69a1
:104bb600c06998476378042293436370e3780332ad
:064bc6009343e37010bdf3
:020000040000fa
:104bcc0070b50c00150000f037f9002808d0c66944
:104bdc00e423c3589b6b2a0021003000984770bd1a
:064bec007d204042fbe7c2
:020000040000fa
:104bf20070b505690400954200d915002a00606964
:104c020000f0faf9226963695b19551b00222561dc
:064c120063611a7070bd21
:020000040000fa
:104c180000000000005000410100070000000201f0
:104c2800000000000000000000000000000000007c
:044c38000000000078
:020000040000fa
:104c3c0020390000123900002c39000056390000d0
:104c4c007a390000643900001e3900001e3900005a
:044c5c0070390000ab
:020000040000fa
:104c600010b5064b987bc0b23b229a73044b1b686d
:104c7000002b02d0024a5168984710bd002c004218
:044c8000780900208f
:020000040000fa
:104c8400074b1b69834203d2054b1b69c01a70474b
:104c9400034b1b69c01a80235b029c466044f6e701
:044ca400cc08002018
:020000040000fa
:104ca80010b500f0cbf8041e0ad0e423c3589b6962
:104cb800c0699847e3780722934302221343e370bd
:024cc80010bd1d
:020000040000fa
:104cca0010b50c0000f0b9f8002807d0c269e42337
:104cda00c3585b6a21001000984710bd7c204042ef
:024cea00fbe7e6
:020000040000fa
:104cec0070b50d00140000f0a7f8002806d0c430f1
:104cfc008560002343708470002070bd7520404295
:024d0c00fbe7c3
:020000040000fa
:104d0e0010b50c0000f097f8002807d0c269e42314
:104d1e00c3581b6c21001000984710bd7d204042e7
:024d2e00fbe7a1
:020000040000fa
:104d300070b505000c000b79002b00d170bd09780f
:104d4000fff7e5ff21782800fff7bfff002323715d
:024d5000f4e786
:020000040000fa
:104d5400431c09d0436a01218171044a9a831d22ac
:104d64001a831a898a431a817047c046ff030000d8
:020000040000fa
:104d74004c2a0000a4290000be290000162a0000c5
:104d84004c2a00004c2a0000f4290000e02900000d
:020000040000fa
:104d9400002805d1002906d0044b19625a627047d5
:104da40078204042fbe77d204042f8e7cc07002012
:020000040000fa
:104db400054b064a5a801a00d37b5bb2002bfbdbff
:104dc400014b188a80b27047002c00421080ffff0c
:020000040000fa
:104dd40015510000d54e0000ed4e00005551000065
:0c4de400894f00009d4f0000b54d0000fd
:020000040000fa
:104df00010b5054c2068fdf7a9fea068fdf7f8ff87
:0c4e0000fdf708f810bdc0466009002056
:020000040000fa
:104e0c00054a536ac0185062834200d87047936aaf
:0c4e1c0001339362fae7c046cc08002086
:020000040000fa
:104e280068076c094c836a9074a07ac0008068880f
:0c4e380000846c820081286e696c2900e7
:020000040000fa
:104e4400431e033306d8d623c35c5a1e93415b42e8
:084e5400184070470020fce744
:020000040000fa
:104e5c00044b1b78002b03d1024b01225a701a70a1
:084e6c007047c0468c090020cc
:020000040000fa
:104e7400281e00006e1e00007e1e00009c1e000006
:084e8400dc1e00001e1f0000ef
:020000040000fa
:104e8c00044a137802210b431370537e5bb2002b40
:084e9c00fbdb704700400042ff
:020000040000fa
:104ea400044a137b02210b431373537e5bb2002b22
:084eb400fbdb704700400042e7
:020000040000fa
:104ebc00044b1b7e01221340181e01d0014b1a76a5
:084ecc007047c046004000429f
:020000040000fa
:104ed400044a138802210b431380d37b5bb2002b5b
:084ee400fbdb7047002c0042cb
:020000040000fa
:104eec00044a138802218b431380d37b5bb2002bc3
:084efc00fbdb7047002c0042b3
:020000040000fa
:104f040013b50400019201aafcf740f86368db06bc
:084f140001d50120404216bd49
:020000040000fa
:104f1c0010b5002903d1fff7c9fb203002e0081cb3
:084f2c00fff7c4fb10bdc046f5
:020000040000fa
:104f34000eb403b503aa02ca019200f037f802b016
:064f440008bc03b0184791
:020000040000fa
:104f4a00002803d0bff35f8f62b6704772b6bff313
:044f5a005f8ffae784
:020000040000fa
:104f6000f93000002d470000693c000000000000ff
:044f70005d4e000092
:020000040000fa
:104f74001201000202000040d8040a0000010102ec
:044f84000001c04622
:020000040000fa
:104f8800034b18831a00d37b5bb2002bfbdb704703
:044f9800002c0042a7
:020000040000fa
:104f9c00034b58831a00d37b5bb2002bfbdb7047af
:044fac00002c004293
:020000040000fa
:104fb00010b513000a000249fff7b6f810bdc0464d
:044fc000ffffff7f71
:020000040000fa
:104fc400431c05d04378002b02d000234370836335
:024fd400704724
:020000040000fa
:104fd600431c04d0436a188a8004400d70470020a1
:024fe600fce7e6
:020000040000fa
:104fe800eff3108072b6bff35f8f43425841c0b2ef
:024ff800704700
:020000040000fa
:104ffa00002310b59a4200d110bdcc5cc4540133d1
:02500a00f8e7c5
:020000040000fa
:10500c0003000a7818001a7001310133002af8d114
:02501c007047db
:020000040000fa
:1050200010b5024b9868fef7f1fc10bd6009002036
:020000040000fa
:10503000431c04d04378002b01d041638263704746
:020000040000fa
:10504000431c04d0426a138902210b431381704729
:020000040000fa
:105050000301000200000000e4500000604f000067
:020000040000fa
:10506000494e4600696e66004e414e006e616e000c
:020000040000fa
:1050700003001218934200d1704719700133f9e709
:020000040000fa
:1050800003001a78002a01d1181a70470133f8e793
:020000040000fa
:1050900010b5fcf795fc029a039bfcf7f5f910bddf
:020000040000fa
:0e50a000431c03d0436a80221143997270476b
:020000040000fa
:0e50ae00431c02d03023c05c70470020fce79a
:020000040000fa
:0e50bc0010b50020fef7a6fefff794fefce7fd
:020000040000fa
:0e50ca000300413b192b01d8202318437047e7
:020000040000fa
:0c50d800014b82225a60704700400041ea
:020000040000fa
:0c50e400010000000100000001000000bd
:020000040000fa
:0c50f0006c5100009c4700009c48000030
:020000040000fa
:0c50fc00014b01221a717047500900207e
:020000040000fa
:0c510800014b588b80b270470040004201
:020000040000fa
:0c511400014b18605960704778090020ba
:020000040000fa
:0c51200010b50400fff772ff200010bd66
:020000040000fa
:08512c000110022003300440d1
:020000040000fa
:0851340010b5fff757ff10bd95
:020000040000fa
:08513c0010b5fff704ff10bde0
:020000040000fa
:08514400d44d00001200000030
:020000040000fa
:08514c0025342e32670d0a0024
:020000040000fa
:0851540000487047006cdc020a
:020000040000fa
:07515c00286e756c6c290040
:020000040000fa
:045164000201030041
:020000040000fa
:0451680034430000cc
:020000040000fa
:04516c00040309042b
:020000040000fa
:045170000020704764
:020000040000fa
:045174000020704760
:020000040000fa
:045178007047c04676
:020000040000fa
:0200000400807a
:0440000077c700d8a6
:020000040000fa
:0200000400807a
:044004005c00ffff5e
:00000001FF
