:020000040000FA
:10000000F07F0020C94D0000915E0000955E000069
:1000100000000000000000000000000000000000E0
:10002000000000000000000000000000D3400000BD
:100030000000000000000000D3400000D34000009A
:10004000D3400000D3400000D3400000D340000064
:10005000D3400000D3400000D3400000195D0000F1
:10006000D3400000D11B0000D3400000D34000006B
:10007000D34000000000000000000000D34000005A
:10008000D3400000D340000015580000D3400000CA
:10009000D34000000000000000000000D34000003A
:1000A000D3400000D3400000D3400000D340000004
:1000B000F8B5C046F8BC08BC9E467047A94D000084
:1000C000F8B5C046F8BC08BC9E467047814D00009C
:1000D000FFFFFFFFFFFFFFFFF0B5DE4657464E462E
:1000E0004546E0B585B005004378002B00D100E31C
:1000F000836B002B00D1FCE2446AA38B9B0505D5E2
:10010000238B9B0502D580239B00A383A38BDB0558
:1001100005D5238BDB0502D580235B00A383A38B4E
:100120001B0604D5238B1B0601D58023A383A38B39
:100130005B0604D5238B5B0601D54023A383A38BE9
:100140009B0604D5238B9B0601D52023A383A38B79
:10015000DB070DD5238BDB070AD50123A383A382FD
:100160000F33A383238300220421686BAB6B984772
:10017000A38BDB060DD5238BDB060AD51023A383C7
:10018000A3820F3BA383238300220321686BAB6B05
:100190009847A38B5B0709D5238B5B0706D5042300
:1001A000A38300220721686BAB6B9847A38B1B07C7
:1001B00002D5238B1B0735D40823FF33E35CDB0612
:1001C0005DD50A23FF33E35CDB0658D56E6CF3790B
:1001D00002229343F371F37B9343F3733768002F49
:1001E00047D0296D0632386805F083FD0823FF33B8
:1001F0001022E254033B3032E2543A689179D379C9
:100200001B020B432AD121330722EA5402233B72FB
:1002100006337B60BB693360FB68002B2FD038004E
:1002200098472CE021230022EA54237B1B079B0FD5
:10023000984AD25C3023EA542800503060220021D2
:1002400005F0A2FDAB6B002B03D000220221686BEE
:1002500098478023A372783BA383ADE713787F2B65
:1002600003D821230222EA54D0E721230622EA54AC
:10027000CCE721230122EA54E7330F32E25408236A
:10028000FF33E35C9B0737D50A23FF33E35C9B070F
:1002900032D56B6C9E68002E2ED02122AA5C082AD3
:1002A0001AD0316A002971D1327C51B200295DDB4C
:1002B00021220521A95400223272B2699A60F368A2
:1002C000002B01D0300098470823FF330222E2546C
:1002D000033B3E32E2540FE0002221216A54327285
:1002E000B16999607260F368002B01D030009847C3
:1002F0000823FF330222E2540823FF33E35CDB07C9
:1003000000D4A3E00A23FF33E35CDB0700D49DE0C5
:100310006B6C98462123EB5C052B59D043461E6835
:10032000002E74D06F6DBF04BF0C306A73683A182A
:100330009A4201D91F1ABFB2296D33689C466044A6
:100340003A0005F0D6FC336AFB18336272689342B8
:1003500064D241468988B94260D882235B0040223A
:10036000E2540823FF333F3AE2546FE07F231A4000
:1003700032746B6E9B0B9B036B660823FF33022268
:10038000E2540623FF337E32E254B5E79F89B94237
:1003900000D88FB2286E7368591A33689C4661443E
:1003A0003A0005F0A6FC336ADB1B33626B6E9B0BD5
:1003B0009B036B666B6EBF04BF0C1F436F66082305
:1003C000FF330222E2540623FF337E32E25493E7E6
:1003D00043461868002813D0002303722122AB542F
:1003E0000822FF320121A154033A3F31A154424671
:1003F000816911604360C368002B27D0984725E0CE
:1004000021230422EA54E733033AE2541EE0212375
:100410000322EA54E733023AE25417E093429B4145
:100420005B42337221230722EA540823FF33063A42
:10043000E254033B3F32E2544346B2691A60336AE6
:100440007360F368002B01D0300098470126012328
:100450009B460827FF3707339A4649E07F2213401F
:1004600003744346EA18536E9B0B9B0353660A239F
:100470004A46D3550623FF3380224946CA5434E006
:10048000009B5B01E3180933FF330A321A704B46B5
:10049000DA552AE08C5E0000019B9B89994200D8C6
:1004A0008BB24268511A0268944661444246AA18C7
:1004B0001166016AC91A0162516E890B890351667E
:1004C000516E9B049B0C0B4353660A234A46D3553B
:1004D000009B5B01E3180A33FF331A0002231370F9
:1004E0000623FF3380224946CA540136032E73D0B7
:1004F000238C9BB20096334159461942F5D07301C3
:10050000E3180A33FF331B78DBB203937301984679
:10051000A146C1444B46DB5DDBB20293029B5146D0
:10052000194212D0039B19420FD04346EB186A338D
:100530001B789B0709D54346EB186A331A780221CA
:100540008A431A704B465246DA55029B9B07CCD51C
:10055000039B9B07C9D52B004433B2009B580193E2
:1005600098680028C1D0016A002995D1037C5AB24D
:10057000002A00DA72E700230372019B82699A6005
:10058000C368002B00D09847019B9A68002A00D1CD
:1005900076E7106A019B9B89984200D883B2516824
:1005A000081A11688C466044414669180866106A4A
:1005B000C01A10624A6E920B92034A664A6E9B04FE
:1005C0009B0C13434B660A234A46D3550623FF333D
:1005D00080224946CA5488E7023E012399460823EF
:1005E000FF339A4621E0002303725B4682691A605A
:1005F000036A4360C368002B00D098475B461B68C2
:10060000002B6CD01A687F01EB191A65052342464E
:1006100051465354E7190A37FF373B70FF334022E6
:100620004146CA540136032E63D0238C9BB2370057
:1006300033414A461A42F5D07301E3180A33FF33B7
:100640001B78DBB2039373019846A044434652469D
:100650009B5CDBB20293029B04221A4210D073010E
:10066000EB185A331B789B0706D57301EB185A33E6
:100670001A7802218A431A7043465246042199543B
:10068000029B4A461A42CDD0039B1A42CAD02B0085
:100690004433B2009B589B4618680028C2D07B01A7
:1006A000EB185B6D9B049B0C026A9A18026241680E
:1006B0008A4298D25946898899420DD803689A1877
:1006C0007F01EF193A650523424651465354FF33E3
:1006D00040224146CA54A5E74B46037285E77F0195
:1006E000E7190937FF3705223A70434651465A54F5
:1006F00098E705B03CBC90469946A246AB46F0BD93
:10070000F0B599B011930B68139009934B680D9154
:1007100005938B680A930B691693CB680393136850
:10072000089353680898079300220023079904F060
:1007300099FC00280BD1099B5B073BD40823099A3D
:100740001A400A9B0B9204930FD0202306E08022CC
:1007500012069446079B634407932D23039A137054
:100760000A9B013B049301230B930B99079B8C4637
:10077000039A089962445B0010925B08C04A002902
:100780001AD1934218D1119BBE4C413B2100192B29
:1007900000D9211D109805F05BFB201D05F0FCFA27
:1007A000099B0200009303990A9B139803F096FE9D
:1007B00019B0F0BD2B23D1E7934203D811D1089B88
:1007C000002B0ED0119BAF4C413B2100192B06D8BA
:1007D0000831109805F03CFB20000C30DEE70C31AE
:1007E000F7E7002200230898079904F01DFE002671
:1007F000A54F002833D000230293119805F0F1FA99
:10080000C3B20C93059B002B00DACAE10C9B069344
:10081000672B00D045E1059B002B00D1BCE1029B7A
:10082000043304DB029B059A934200DA34E165232A
:100830004DE126002F00029B013302930022934BCF
:100840003000390001F020FD089A079B04000D00DC
:1008500004F0E8FB0028ECD00024012524E00290FD
:10086000ECE7029B1A008A4B9A4212DA002C10D154
:100870000022884B0898079901F006FD0022089095
:10088000079130003900834B01F0FEFC2C0006007C
:100890000F007E4B30003900002202F02DFF0600D1
:1008A0000F00029B013B029332003B00089807991E
:1008B00004F0D8FB0028D4D19FE732003B00089811
:1008C0000E9902F019FF03F0EFF81490159104F05F
:1008D0005FFD1022099B1340034300D090E00C9B66
:1008E000672B00D08CE0002C00DB9AE001358020E3
:1008F000000684460E99089A61440B0014981599D5
:100900000092019332003B0005F04EFA80231B0653
:10091000CB1808900E933000390000225B4B02F098
:10092000EBFE06000F00013C059B1293179B9C42B7
:1009300006D00D9B059A1B691493053B9342BCD8C6
:10094000079B002B09D1099BDB0606D5059B039A63
:10095000013305932E2312995354059A002594468A
:10096000039B634407931D70069B652B2ED1169B3A
:100970005C1E039B1D55029BAB4202DA5B42029355
:10098000013503260A27169BF61A029B002B60D11D
:100990003319002B5DDC621E2D23002D00D1023B9C
:1009A0000399023C8B54119B413B192B01D84523E1
:1009B0000693039B1919069B0B70049B023B04933F
:1009C000059BA34202DA079805F042FA0323099A2D
:1009D0001340022B12D1049B002B0FDD039805F06E
:1009E000DBF9039B049A9B180B9A824242DD049A1E
:1009F0003021109805F0C8F900230A930398CDE63A
:100A0000079B002B0DD1002C0BDA059B039A0133B9
:100A10000593049B1299013B04932E2353542D3BC1
:100A20000793059B3021EA18944602E0039AD154BB
:100A300001339C45FAD16246059B303001335B1986
:100A40000593049B013B5B1B0493039B0025985477
:100A50004DE70298390000F0D3FF039B3031013C91
:100A600019550298390000F0E5FE049B0290013B05
:100A700004938AE7039A125C1A540138B4E7C0461B
:100A80000000F07F785D00000000F03F000024408F
:100A9000D4FEFFFF00005043029B002B16DA6623B2
:100AA0000693059B01330593069B662B10D1029B91
:100AB000002B03DA002300263D4F02930C9B672B8B
:100AC00004D0029A059B94466344059366230693DB
:100AD00000230E960F97089C079D12930E9A0F9B6A
:100AE0002000290002F008FE02F0DEFF14901591AC
:100AF00004F04EFC8021220009066B18179000922A
:100B00000193149815990E9A0F9B05F04DF98023C7
:100B10001B06CD180022274B04000E980F9902F0F7
:100B2000EBFD129B0E900F9101331293129A059BCD
:100B30009342D3D10022204B01F0A6FB0E900F91DF
:100B400002000B002000290004F08CFA00280AD1D2
:100B50000E9A0F9B2000290004F066FC002806D0A6
:100B6000179BDB0703D4002300240E930F940E9AE7
:100B70000F9B0898079900F047FF069B08900E917D
:100B8000029C652B00D100240025059B0795E31AE4
:100B900017930B9B0593C7E6012305933FE60623B6
:100BA000FBE70C9B672BFAD006930623059378E7A7
:100BB0000000F03F0000244000001440F8B5DE467D
:100BC00057464E464546E0B5040015000F270F4036
:100BD0004EB2431E033300D9C2E10823D356022B81
:100BE00000DDC0E1022F00D9C0E1436A98463B0016
:100BF00010339B00C31859683211082313408A46EA
:100C00009A445346DB79DB0700D4B2E16B6899461E
:100C100053469988484602F039F900294CD0002EF5
:100C200000DBA9E1E378002B4CD00023AB61033358
:100C30002B72002399466968296253461A68002A74
:100C400000D072E104232B720023EB6153461D6038
:100C5000002F00D02BE1002E00DAE8E02123E35C36
:100C6000032B6AD0042B00D1C7E0012B00D061E137
:100C7000216D0832286805F03CF882235B00402291
:100C80004146CA54F43B0822FF328B540A22FF32F9
:100C90008B542B689A79002A44D121230732E254DD
:100CA0005346AA691A6002232B72EB68002B00D10D
:100CB00040E1280098473DE1002E0EDBE378002B51
:100CC00000D05CE1A37B012B1BD07F2040423CBCC9
:100CD00090469946A246AB46F8BD2B7CDA0706D56E
:100CE0004A46002A03D08022524213432B74E378F1
:100CF000002BE7D00023AB6103332B72002399460E
:100D000099E700239B46A3730A20205604F028FA93
:100D100081465B46AB6103332B720021002E00DB62
:100D20008AE788E71B787F2B03D821230222E2542D
:100D3000B6E721230622E254B2E7666DB604B60C8C
:100D4000286A6B6832189A4201D91E1AB6B2216D10
:100D50002B689C466044320004F0CBFF2B6AF318EA
:100D60002B626A6893421BD300232B722133082223
:100D7000E254203BFF3241468B540A22FF328B540F
:100D80000433FF33C93ACA542B6A6B605346AA69CD
:100D90001A60EB68002B00D1CCE028009847C9E02E
:100DA00053469B88B3421BD901232B722122082171
:100DB000A1540822FF3241468B540A22FF328B5441
:100DC0000433FF33C93ACA542B6A6B605346AA698D
:100DD0001A60EB68002B00D1ACE028009847A9E02E
:100DE00001230822FF3241468B540A22FF328B54E2
:100DF0000433FF33C93ACA549CE000232122A35490
:100E00002B7201330822FF3241468B540A22FF32F3
:100E10008B540433FF33C93ACA545346AA691A6043
:100E2000EB68002B00D185E02800984782E0212361
:100E3000E35C062B14D0072B7CD121230822E2543B
:100E4000636E9B0B9B0363660223FF3241468B5408
:100E50000A22FF328B540623FF33893ACA5469E0D1
:100E60002B6A52469688B34200D29EB2206E320060
:100E7000296804F03EFF2B6A9B1B2B622123092269
:100E8000E254636E9B0B9B036366626EB3049B0C20
:100E90001343636602230822FF3241468B540A2221
:100EA000FF328B540623FF33893ACA5442E0002EA6
:100EB00012DB29687B01E21811651F0047440522F7
:100EC0000821FF317A543B000A33FF331A70822322
:100ED0005B003B32FA542DE0286A9B88984200D888
:100EE00083B26A68101A2A68944660447A01A1188D
:100EF0000866286AC01A2862486E800B800348661C
:100F0000486E9B049B0C03434B66130043440A2228
:100F10000821FF315A541F000A37FF373A70062262
:100F2000FF328739995405E01A009369002BFBD1F1
:100F30009561EA61E3780020002B00D0C7E64B46BC
:100F4000002B09D0A37A5AB2002A05DB1F221A40CF
:100F5000012393400D4A13600123A3730020B6E6DA
:100F60007D204042B3E67B204042B0E67C204042F8
:100F7000ADE676204042AAE67D204042A7E6002367
:100F8000AB6103332B720023994655E600E100E084
:100F9000F0B5DE4657464E464546E0B591B0009066
:100FA0000191D34B1B78002B00D06FE0D14EA025D0
:100FB0000BAC984614E00CA804F064FD012800D1A5
:100FC00093E1002800D08CE1227812026378134369
:100FD000338000D187E10235EDB20236AE2D16D056
:100FE0004346237063700CAB76221A80743A5A80A1
:100FF0000D94280004F09AFB0028DCD0070038008C
:1010000011B03CBC90469946A246AB46F0BD0700E5
:10101000B84B1E88350B0022DA813205120D1A807A
:10102000002301229146FF24C020800119E0FF2205
:1010300052003A40AF49525A120A53401BE05B003B
:1010400043401BB29BB2013AD2B2002A05D019B27A
:101050000029F4DB5B009BB2F5E70137FFB2102FEC
:101060000BD04A463A42E2D0FF2252003A40A14910
:10107000525A224053400822E9E79E4A16801B0B31
:101080009D4200D02BE19A4B01221A709A4B18789E
:101090004000C0B2502318430FA903F0E1F9071E26
:1010A000ADD1954B18784000C0B2402318430EA92B
:1010B00003F0D6F9071EA2D10F9B002B00D10AE145
:1010C0000E9A9246002A00D107E18A494A89120203
:1010D0009C1A0694E5170795888922002B000021A9
:1010E00003F012FD4902C00D0843FA23DB009946C4
:1010F0008144824B994500DD81E022002B002000D5
:10110000290003F001FD02000B0012184B411218D8
:101110004B4159108B46DB1798464B460893DB171B
:101120000993774801214942089B099CC0186141F5
:1011300002000B0003F0E8FC040F0B012343020143
:10114000121A8B41960F9D003543940024184D418F
:1011500002940395EE170F229446002314003440A6
:101160002200029C039DA4185D412B0722091E004A
:10117000164302962A110392430FCD001D43C4006B
:10118000241A8D41A60FAB003343A20012184B4125
:10119000D8170025614601400C00A4185D412907BD
:1011A0002209114304912A110592564B99453EDAC2
:1011B00055480021089B099C1B184C411800210030
:1011C0001A00230003F0A0FC02000B00010F1D0118
:1011D0000D431401A4185D41029803990019694157
:1011E00002900391510FDD000D43D40012196B41A1
:1011F00004980599801859410490059117E00698C4
:10120000020007990B0003F07FFC02000B00810F26
:101210009D000D43940012196B4199118B46DB1709
:101220009846002300240493059402930394314EBE
:101230003089069A079B002103F066FC8C06820920
:1012400022438B11B188CD0B4C0412196B410892CB
:101250000993F088069A079B002103F055FC4C0681
:10126000C2092243CB11718800250C04A4185D41EA
:10127000484604F06FFA061C5846414604F0A8FBA5
:10128000011C301C04F070FD204902F003FE009B9D
:10129000186020002900049B059CC01AA1415246F9
:1012A000002303F031FCCC02420D22434B15089C75
:1012B000099D02980399241A8D41121BAB415904D0
:1012C000D00B0843D91304F083FB104902F0E2FD70
:1012D000019B186093E6022791E602278FE6032719
:1012E0008DE602278BE6022789E6070087E6C046DF
:1012F000DC0900208C090020DD090020CF07000058
:1013000030F8FFFF24FAFFFFDC0500000000C842B0
:101310000023F0B506001500AFB0059101930599C3
:101320000B78002B00D10FE101235B420A930EAB37
:1013300000240C93802309940B940D930B5D002BD8
:1013400001D0252B2AD1002C06D02200300004F039
:101350004EFA059B1B190593059B1A78252A00D088
:10136000E7E0013302930593022310219C460827EE
:10137000059803782B2B1BD025D8202B1BD0232B93
:101380001DD02A2B2AD003F08DFE0B90059B1A78D6
:10139000303A092A33D801330593F7E70134CDE712
:1013A0000122099B80180393134309930590DFE7FB
:1013B0000423099A0EE0099B03933B430BE0099B2E
:1013C00003930B4307E02D2BEAD0302BD9D1624693
:1013D000099B0393134309930130E7E72B6801301E
:1013E0001A1D1B6805902A600B93002B07DA099AD7
:1013F0005B420392012203990B934A400992099B95
:10140000DA0702D5022293430993059B1A782E2A04
:101410000ED10022581C0A9205905A782A2A28D107
:10142000023305932B681A1D1B682A6003930A93E5
:1014300005A803F0C7FF059B0700187804F0D1FC4E
:10144000692800D183E035DC632800D1D6E01BDCBD
:10145000252800D1DFE0612859D0252306AA137082
:10146000029B0593002309930B93013B0A930233DC
:10147000B2E003F017FE0A90059B1A78303A092A69
:10148000D6D801330593F7E7642860D06728E4DCF9
:101490002A00390006A804F0A8F8002800D1A9E025
:1014A000059B09A95A1C05921B7806AA3000FFF774
:1014B00027F93DE0702800D17DE016DC6E2800D1D0
:1014C00091E06F28C9D12B000022390006A802F054
:1014D00043FC002800D18DE0059B06AA013309A931
:1014E0003000059304F0DCFC22E0752840D0782819
:1014F0004FD07328B1D1802F00D07BE0059B2A68A4
:1015000001330593131D2B601268002364E02A0049
:10151000390006A804F069F8002800D16AE0059BAC
:1015200009A95A1C05921B7806AA300004F0BAFCDF
:101530002418019B1C19A34200DC74E04F223B4B92
:101540001A6001235B42019301982FB0F0BD2B007C
:101550000122390006A802F0FFFB00284AD0059BB3
:1015600006AA013309A93000059304F099FCDFE7CE
:101570002B000022390006A802F0EEFB002839D02B
:10158000059B06AA013309A93000059304F088FCE5
:10159000CEE72B000022390006A802F0DDFB002870
:1015A00028D0059B5A1C05921B7806AA09A9300071
:1015B00004F078FCBCE72B000022F02106A802F022
:1015C000CBFB002816D0059B079A01330593069B99
:1015D000134306D1164A163209A9300003F00EFB58
:1015E000A6E77823E1E7019B39001A1906A82B002A
:1015F00003F088F8059B013305939AE7802FF9D112
:10160000059B013305932B681A1D1B682A6006AAE7
:1016100013700123E0E7802FECD1059B06AA01336C
:1016200005931070F5E7019479E6C046D0090020D3
:10163000D85A0000600900201C00000000000000D3
:101640000004002034010000000000001008002009
:101650004000000000000000500800204000000092
:10166000000000000409002030000000000000001D
:101670002C0700205000000001000000155600005B
:10168000BD5C0000295D0000B95D0000C75D000081
:10169000CF5C000051590000D5400000BD20000083
:1016A000DD230000952E0000312A0000B95400000F
:1016B0007D570000BD0B0000B53C0000F93D000067
:1016C000395D0000DB230000000000003409002029
:1016D0002C00000000000000B409002008000000F9
:1016E00000000000CC0800203800000000000000CE
:1016F00020060020A000000000000000B209002029
:10170000020000000100000001000000340500207C
:10171000EC00000000000000C00600206C0000008B
:1017200000000000CC070020440000000000000082
:10173000A80900200A00000000000000D8090020CD
:1017400002000000000000009C0900200C000000C6
:10175000000000007C0900201000000000000000D4
:10176000900800203C000000000000000000002065
:101770000002000000000000000200200002000043
:1017800000000000BC090020040000000000000070
:10179000DA0900200100000000000000C00900205C
:1017A0000400000000000000C40900200400000044
:1017B000000000008C090020100000000000000064
:1017C000DB0900200100000000000000DC0900200F
:1017D0000100000000000000DD0900200100000001
:1017E00000000000C8090020040000000100000003
:1017F000803E0000CC090020040000000000000032
:10180000D009002004000000000000007C07002038
:101810005000000000000000D40900200400000077
:101820000000000000000000000000002222222230
:101830002222222203460B437FD4002243088B42FC
:1018400074D303098B425FD3030A8B4244D3030B47
:101850008B4228D3030C8B420DD3FF22090212BA0C
:10186000030C8B4202D31212090265D0030B8B4288
:1018700019D300E0090AC30B8B4201D3CB03C01A72
:101880005241830B8B4201D38B03C01A5241430B4D
:101890008B4201D34B03C01A5241030B8B4201D33D
:1018A0000B03C01A5241C30A8B4201D3CB02C01AA8
:1018B0005241830A8B4201D38B02C01A5241430A20
:1018C0008B4201D34B02C01A5241030A8B4201D30F
:1018D0000B02C01A5241CDD2C3098B4201D3CB01B6
:1018E000C01A524183098B4201D38B01C01A524165
:1018F00043098B4201D34B01C01A524103098B4269
:1019000001D30B01C01A5241C3088B4201D3CB0053
:10191000C01A524183088B4201D38B00C01A524136
:1019200043088B4201D34B00C01A5241411A00D2E6
:1019300001465241104670475DE0CA0F00D049424F
:10194000031000D34042534000229C4603098B42BF
:101950002DD3030A8B4212D3FC22890112BA030A47
:101960008B420CD3890192118B4208D389019211C9
:101970008B4204D389013AD0921100E08909C3094E
:101980008B4201D3CB01C01A524183098B4201D350
:101990008B01C01A524143098B4201D34B01C01A3B
:1019A000524103098B4201D30B01C01A5241C308B3
:1019B0008B4201D3CB00C01A524183088B4201D322
:1019C0008B00C01A5241D9D243088B4201D34B003D
:1019D000C01A5241411A00D20146634652415B107F
:1019E000104601D34042002B00D549427047634660
:1019F0005B1000D3404201B5002004F055FA02BD4F
:101A00000029F8D016E77047F0B40125ED070F0064
:101A10005F405AD48B4200D1824205D950404240A7
:101A2000504059404B4059404E18760DDF187F0DFD
:101A30003BD0741C640529D0F41B352C26D80E0D20
:101A4000DB022B43DB0AC9022943C9121700202CF1
:101A50001ED2E741E2405740E3415A40A340E340F1
:101A60005A400024801859410AD3B21C520521D093
:101A7000C207012F624117004008CB0718434908ED
:101A8000013636054208AF4160417141F0BC7047F4
:101A9000203C06D01F00E741E3405F400024012ABC
:101AA0006741C0186141EBD3DFE7002EEED129403A
:101AB0000020EBE7013631050020E7E7E742E5D1FA
:101AC0000020C143090DC904E0E76B400E00871AEE
:101AD0009E4104D26E40C01BB141D21973414E18D1
:101AE000DF18AC0AE642E9D2760D7F0D31D0F41B47
:101AF000362CCBD8B4460E0DDB022B43DB0AC902D1
:101B00002943C90A012C32D804D1D4075208DF076F
:101B10003A435B08EF0A6442904199411ED000228B
:101B200039424DD12419404149410124394204D15F
:101B30000134001849413942FAD06246A24204D920
:101B4000361B013E36058919A0E7F10AC9070020B6
:101B50009CE736429AD10020002197E702002243F9
:101B600094D0B842DED2010020002024E3D1202C02
:101B700013DD203CE2411700A240E2405740E34120
:101B80005A40A340E3405A40012FBF410137174359
:101B900000227C42984191410CE01700E741E2406D
:101BA0005740E3415A40A340E3405A407C429041B1
:101BB000994100220F0303D2013E241940414941BB
:101BC000013E36054708AC4150417141F0BC7047B9
:101BD00010B5684B9B7D002B17D0664B5B8B9B072A
:101BE00014D5654B2022FF2199540132FD399954B7
:101BF000614A2023D35C5BB2013300D18AE05E4AA4
:101C00002023D35C062B00D19CE010BD594B5B8B8D
:101C1000DB0707D5584B2022FF2199540132FD39AB
:101C20009954E5E7534B5B8B5B0707D5524B20225A
:101C3000FF2199540132FE399954D9E74E4A2023A5
:101C4000D35C5BB2032B43D0042B0FD0022BCFD13C
:101C50001369002B04D09088002102F001FFC7E730
:101C6000454B9888012102F0FBFEC1E7424A936987
:101C7000126993420BD0404A9168581C9061C95C2C
:101C80003C4A2823D154D369002BFCD1B0E73A4B0E
:101C90005B69002B0ED0384B9B885B0001221343FD
:101CA000344A5362D369002BFCD1334A20330321D9
:101CB000D1549DE72F4A5168C0239B020B435360C8
:101CC000D369002BFCD12C4A20330621D1548FE755
:101CD000294A5369013BD2699A420DD0254AD369FA
:101CE000002BFCD1244BD968DA69501CD8612148FB
:101CF0002823C35C8B547BE71E4A5168E023DB0238
:101D00000B435360D369002BFCD11B4A20330621BF
:101D1000D154E3E720230021D154164A5168C0234F
:101D20009B020B435360D369002BFCD1114B8322E0
:101D30001A76114B5B6A002B00D166E70E4A906A57
:101D4000984762E71300002220215A5401315A5467
:101D5000084B83321A761900533A4B8B1340102BE1
:101D6000FBD1054B5B6A002B00D14EE7024A906A1B
:101D700098474AE70008004234090020F0B557466A
:101D80004E464546DE46E0B5040083B00D0092465F
:101D900099468B4230D82DD04946504603F03AFF41
:101DA00029000600200003F035FF331A9846203B37
:101DB0009B4633D45A465346934042461F005346EF
:101DC00093401E00AF423AD8AF4200D17BE05B4661
:101DD000A41BBD41002B00DA78E000220023009212
:101DE000019301235A4693400193012342469340B5
:101DF000009328E08242CFD9002200230092019371
:101E00000C9B002B01D01C605D600098019903B011
:101E10003CBC90469946A246AB46F0BD42462023C4
:101E20009B1A5246DA40414613004A468A40170040
:101E300042461F43534693401E00AF42C4D900227E
:101E40000023009201934346002BD9D0FB079C4608
:101E5000614672080A437B0846460EE0AB4201D158
:101E6000A2420CD8A41A9D41012024196D410021E1
:101E7000013E24184D41002E06D0AB42EED9013E62
:101E800024196D41002EF8D1009801995B46001984
:101E90006941002B25DB2B005A464446D3402A00DB
:101EA000E2401C005B461500002B2BDB26005F4642
:101EB000BE40330026004746BE403200801A99419A
:101EC000009001919CE7A342B9D880E742462023C5
:101ED00000219B1A0022009101920122DA40019216
:101EE00083E7424620239B1A2A0046469A40230055
:101EF000F340444613432A00E2401C005B461500B1
:101F0000002BD3DA2023424626009B1ADE402F0006
:101F1000B4464646B74066463B003343CAE7C04630
:101F2000F0B583B0574B1A79052A1CD89300564A4E
:101F3000D3589F460321002003F030F9514B18601D
:101F4000431C12D1FA220123920000214F4802F0D3
:101F50005BFD4F4B1860431C0FD000214D4803F030
:101F600053FF03F0C7FD03B0F0BD00224A4903F060
:101F700079FB444B01221A71E4E7424B06221A71A5
:101F8000EBE7404B1B7B002BEDD03E4B02221A713E
:101F9000E9E703F0A3FB0028E5D13D4B1B79002BBB
:101FA000E1D0384B03221A71394B00221A71DAE75B
:101FB00003F094FB0028D6D103F0A8FD03F0B2FD96
:101FC0000028FBD003F014FF00B2314CA08103F0D5
:101FD000C1FB324901F00CFDE621890501F008FD45
:101FE000A0602F4C2F4A3049200000F0D5FF206818
:101FF00002F076FF2D4A2E4B00F046F900222D4BC1
:10200000FFF702FD02F0E4FB20601E4B04221A7170
:10201000A9E703F063FB0028A5D1234B186802F061
:102020005FFF06000F00174CE56A1D4B186802F0B1
:1020300057FF0090019132003B001F49280003F038
:10204000F5FD0300606321220021A154223AE261E0
:10205000E26A21001C3101200090002000F0BEFB4C
:10206000052323717FE703F039FB002800D07AE7CE
:10207000044A2123D35C002B00D174E71300022211
:102080001A7170E790080020CC5B0000395E0000F8
:102090007C090020B55B0000E543000000005F43C1
:1020A000C4090020BC090020C0090020CDCCCCCC44
:1020B000CCCCFC3F00004040445E0000F0B5D6466A
:1020C0004F464646C0B50F260E40022E00D9B1E05D
:1020D000FE25AD001C00083CA4B2AC4200D9ACE027
:1020E000441C00D1ACE0446AA146082B49D9002425
:1020F00008250134E4B26D00ADB2AB42F9D8350029
:102100001035AD0045196D68002A3CD12A60AB80BE
:10211000AA710126E9793143E971AA60AB81AA73FA
:10212000EB7B3343EB7380235B004946CA54113287
:10213000CA54426D44490A404265436E0B404366AF
:10214000436D2407E022D205144023434365436EC8
:102150001C4344660369036543690366436D5B0082
:102160005B084365436E5B005B0843660A23FF33ED
:1021700013224946CA5400201CBC90469946A246E8
:10218000F0BD0024BBE749B28A4609118846082100
:102190008C464146674639408C466544002129609B
:1021A000AB80AA71EB7901218C4661460B43EB7140
:1021B0005346002B29DB73014B441F0080235B0037
:1021C000FD5C07218D43FD54FD5C52001F49525CAC
:1021D0001543FD540623FF334022FA54760053463C
:1021E000D90F761836018019436D174A134043659D
:1021F000436D2407E022D20514401C434465436D1F
:102200005B005B0843650020B6E773014B441F0089
:1022100080235B00FD5C70218D43FD54FD5C52000A
:1022200094460A4A624452781543FD54043380228E
:10223000FA54D3E77C2040429EE77C2040429BE753
:102240007D20404298E7C046FFFFFF8F5C5E0000A4
:1022500008D1002806D1F54204D801D3002A01D1C3
:102260006D0D09D10020C143090DC904F0BDF9D19C
:102270001242F7D1640DF5D00020C1434905490849
:10228000A6E000206146F0BDF0B50127FF070E0073
:102290005E403E40B446BE0A4C18DD18F442D7D228
:1022A000F542E4D2640DECD06D0DEAD06419C90298
:1022B0003943460DC0023143DB023B43DB0A10B415
:1022C0008E4685B297B26F43140C6C433E0CA41932
:1022D000260C2404BFB227439CB26C43A419190CEA
:1022E0006943250CA4B249190D04090C6419000CAA
:1022F00095B245433E0C76193743BFB2360C150CE8
:102300004543AD19A6B2240CAD192E0437432E0C4B
:1023100036199DB24543AD19ACB22E0C89191D0C6E
:1023200045436D182E04290C3443704680B295B293
:1023300045433E0C76193743BFB2360C150C454366
:10234000AD19A6B2AD19240C2E0437432E0C361944
:102350009DB24543AD19ACB22E0C89191D0C4543F5
:102360006D182E043443290C75462D0C90B2684329
:102370003E0C80190604BFB23E43070CA0B23F18C2
:10238000120C6A43D019020C80B2240CA4189AB221
:102390006A43121914042043120C89181B0C6B4356
:1023A000C91810BC01273D05294203D1B619404187
:1023B0004941013CFF077D0D013D641B0BDB6D00B6
:1023C000AC4209DA240500254208BE41684161415A
:1023D00066463143F0BD54E74EE77047F0B5DE4640
:1023E00057464E464546E0B583B004000E000F2523
:1023F0000D40022D02D9102900D0A6E0631C00D1A7
:10240000A6E0676AE378002B13D1A37B012B08D0E9
:102410007F20404203B03CBC90469946A246AB4662
:10242000F0BD0023A3730A20205602F099FE8346D4
:1024300001E000239B46102E28D0002D56D17F238B
:10244000842149007B540821FF317B5481330021D2
:10245000F954636CD97901208143D971D97B8143C7
:10246000D973E3780020002BD4D15B46002B09D030
:10247000A37A5AB2002A05DB1F221A400123934097
:10248000354A13600123A3730020C3E7102384217E
:1024900049007B540821FF317B54260044360196C5
:1024A00000211B019946002398467F250823FF330E
:1024B0009C4601204B01FB184E4642469A55842209
:1024C000520092469A445246157062469D54019AB3
:1024D00008CA0192DA7916008643DE71DA7B1600AB
:1024E0008643DE7301310329E4D1BAE776B2002EC8
:1024F0001BDB6B01FB1880204000195C0727B943E8
:10250000195405210820FF3019540933FF3319707D
:102510001035AD0065196B68361108210E409E1903
:10252000F37907398B43F3719BE76B01FB1880202C
:102530004000195C7027B94319540A210820FF3064
:1025400019540933FF331970E2E77C20404261E7F8
:102550007D2040425EE7C04600E100E0F0B583B078
:1025600005000C004978032900D179E01DD905291F
:1025700030D009292CD1A278E3781B02134304D16F
:10258000C17807220A40052A2ED0AD22AA5CDBB210
:102590009A4200D17FE0AE23EF5C002F41D002339E
:1025A000EA580023B4218C4633E001290AD1A278ED
:1025B000E3781B021343012B05D1BF330022C25421
:1025C000002100E00121280002F0B4FB03B0F0BDBF
:1025D0000121F8E7027880235B4213430370A2785D
:1025E000AC23C2540021EEE7B8330632C25402F0E5
:1025F00055FBAD230022EA54EB78073293430422C3
:102600001343EB700021DEE70133DBB20432BB423F
:1026100007D011684E79A0788642F5D160462950DE
:10262000F2E7A278AD23EA54280001F09DFEEB7892
:102630000722934305221343EB70A27801AB1A7073
:10264000D523EB5C0021012BBDD1D733EB58002BF8
:1026500023D0DC22AA5801A90A2098470021B2E71A
:10266000A278E3781B021343012B0FD00121022B28
:10267000A9D102780C331340022BA4D16379837063
:10268000437801221343437000219CE7BF330122AA
:10269000C254002197E7002195E7002193E7704796
:1026A0000122D20703004B403DD430B4431A01D27B
:1026B000C01AC9184B004400240EFF2C29D0002C4E
:1026C00024D01B0E20D0E31A182B1DDC0902114365
:1026D000C40D000210435D4219350A00AA40D20918
:1026E000D940451801D36D080234013CE405280A9D
:1026F0000121C9072D062A438A4160414100090E84
:10270000FF2901D3C00DC00530BC7047C00FC00702
:10271000FAE742001823DA41FF2AF5D07F200001B2
:102720000C300005F0E7A4465140431A02D2534052
:10273000C01AC9184B00090211431B0E4400240E95
:10274000FF2C41D0002B10D05B421B19012B10D362
:1027500022D1C30D4002401A10D3DB050100400A0C
:10276000C90591415841644670472442FBD100207D
:10277000F9E7C30D40024900401AF4D000210131AD
:102780004000FCD38C4204D95B1ADB05400AC01818
:10279000E9E7180AC007E6E7192BE4D801330C0073
:1027A000D940DC414C40012C4941C30D000210438B
:1027B000441A01D4A4006408013BDB05200A240666
:1027C0009441584164467047FF2B01D04102CAD062
:1027D0007F2000010C300005C5E7C046F0B5C646B5
:1027E00000B506000F0015001C0006AB1B78002882
:1027F00000D073E0012252420A60404A127C002A53
:1028000000D16EE0002C00D16EE09A070AD53B4B58
:10281000D989A14200D96AE0200000F037FB641A90
:10282000022101E001211940344B5A6B9B6A9A4204
:1028300060D2334B5B78012B05D0602464422000CA
:1028400004BC9046F0BD2E4B00225A702D4B1B7AD3
:102850005BB2012B10DD2B4A2C23D356012B0ADD52
:102860005023D3560226012B06DD254B01225A7038
:1028700080246442E3E70126224AF00083199B008A
:102880009846904483199B009D5043465C6000230A
:10289000444663611C4BE3604646217403F0E6FA4C
:1028A000164C636B0133636303F0E4FA3E60217BF3
:1028B0002068424602F088FF041E03D1104B01221B
:1028C0005A70BCE703F0D2FA0C4A536B013B5363D6
:1028D00003F0D0FA01235B423B60EFE778246442C7
:1028E000ADE776246442AAE77E246442A7E77E240B
:1028F0006442A4E780246442A1E7C046CC070020DC
:10290000D8090020C00600205545000030B583B02E
:10291000002800D081E0444B1B78002B00D07FE0E2
:10292000414B01229A731A7020301A544C685C6231
:10293000C87B587200205870986318718D7A9D7208
:10294000CD7ADD720D7B1D734D7B5D73D870227067
:102950005A6A013093780342FCD10A23D370334B77
:102960001B685B0B0193019A1F2313401F2B33D06D
:102970002D4A526A108D9B0103431385019B9B05D1
:10298000DB0E1F2B2AD0108D03431385019BDB0424
:102990005B0F072B24D0108D1B03034313850B7A89
:1029A000002B03D013780420034313701E4B5B7A73
:1029B000012B17D01C4A516A0B78022003430B707D
:1029C000516A02228B781342FCD1174A202302213C
:1029D000D154002003B030BD1A3BC9E7023BD2E717
:1029E000043BD8E7104B5A6A1800503050623C2222
:1029F000002098540A6A1A645A6A13890C30834377
:102A0000897B032906D09BB213810021064802F07E
:102A100001FCCFE701310B43F5E701204042D9E744
:102A200001204042D6E7C046000400202460800018
:102A3000F8B5CE46474680B5060088460F240C40C0
:102A4000022C00D97CE0431C00D17CE0476A2300C3
:102A500010339B00C3185D68C378002B10D1837BB3
:102A6000012B05D07F2040420CBC90469946F8BD12
:102A7000002383730A20305602F072FB814601E086
:102A800000239946002C2DD182235B00F722FA54B3
:102A90000823FF33783AFA54EB790227BB43EB71F2
:102AA000043C2100280002F061FDEB7BBB43EB738B
:102AB00028000830210002F059FDF3780020002B97
:102AC000D2D14B46002B09D0B37A5AB2002A05DB8B
:102AD0001F221A40012393401C4A13600123B37341
:102AE0000020C1E743465BB298461B1108201840FE
:102AF0002818C37902229343C3710421494202F08A
:102B000035FD4346002B0DDB64013C1982235B003D
:102B10001022E2540822FF322021A154073AFF3A42
:102B2000E254CAE764013F1982235B002022FA5471
:102B30000822FF324021B954063AFF3AFA54BCE762
:102B40007C20404290E77D2040428DE700E100E09C
:102B500070B582B0040016006B460022DA710E29AF
:102B600001D002B070BDEC2545433F4BED18B27962
:102B7000F3791B0213432A00E03213802B00E43365
:102B80001B681B6C7231E86998473378DB06DB0EF3
:102B9000DAB2012A2CD05BB2002B09D0022A38D03D
:102BA000032ADED132000E21280002F09CFCD8E777
:102BB0003278602313400CD152B2002A04DB31007A
:102BC0002800FFF7CBFCCCE73100280000F0E4FA46
:102BD000C7E7402B06D0202BC3D10121280002F0EB
:102BE000A9F8BEE732000E21280002F07CFCB8E70D
:102BF000327860231340402B05D031793200280011
:102C000001F0ACFFADE731793200280001F0A6FFFA
:102C1000A7E7317900290AD1337860221A421BD103
:102C20006B46D9793200280001F098FA99E76B4693
:102C3000DA1D280002F0D6F9EC2363430A4CE418AD
:102C4000E27807231340052B01D10028E4D10121AC
:102C5000280002F06FF884E76B46D979320028002B
:102C600001F07CFF7DE7C04634050020F8B5040084
:102C70000D0016000823C356002B7DDD092979D8E5
:102C80008B003E4AD3589F464378042293434370B7
:102C9000E427C3591B6C0021C0699847E3591B6C9A
:102CA0008021E0699847200001F0F8FFE3595B6A52
:102CB0001021E0699847E3591F6A402300228021D0
:102CC000E069B8479023E356022B07DC22008832E4
:102CD000E423E3589B6B0021E0699847E3780722DF
:102CE000934303221343E370E423E3581B69E06931
:102CF0009847072303405B0020780E229043184337
:102D00002070E2680E231840022816D0B023916884
:102D1000E1501279023BE254AD230022E254D52364
:102D2000E35C012B28D1D733E358002B24D0DC22DD
:102D3000A2583100280098471EE0A2335169E150A3
:102D4000127C023BE254E7E743780422934343704A
:102D5000E5E74378042213434370E0E7C378072292
:102D6000934301221343C370D9E7C37807229343E7
:102D7000C370D4E7002DD2D1F8BDC0463C56000048
:102D8000002243088B4274D303098B425FD3030AAA
:102D90008B4244D3030B8B4228D3030C8B420DD3BD
:102DA000FF22090212BA030C8B4202D3121209024B
:102DB00065D0030B8B4219D300E0090AC30B8B4289
:102DC00001D3CB03C01A5241830B8B4201D38B0337
:102DD000C01A5241430B8B4201D34B03C01A5241DC
:102DE000030B8B4201D30B03C01A5241C30A8B421F
:102DF00001D3CB02C01A5241830A8B4201D38B020A
:102E0000C01A5241430A8B4201D34B02C01A5241AD
:102E1000030A8B4201D30B02C01A5241CDD2C3091F
:102E20008B4201D3CB01C01A524183098B4201D39B
:102E30008B01C01A524143098B4201D34B01C01A86
:102E4000524103098B4201D30B01C01A5241C308FE
:102E50008B4201D3CB00C01A524183088B4201D36D
:102E60008B00C01A524143088B4201D34B00C01A59
:102E70005241411A00D20146524110467047FFE7C5
:102E800001B5002003F010F802BDC0460029F7D0BC
:102E900076E77047F8B5CE46474680B506000D0088
:102EA0000F240C40022C00D96DE0431C00D16DE0D2
:102EB000476A230010339B00C3185B689846C378A9
:102EC000002B10D1837B012B05D07F2040420CBC0E
:102ED00090469946F8BD002383730A20305602F0CD
:102EE0003FF9814601E000239946002C29D06DB2BC
:102EF000002D42DB083464013C19102363712D114D
:102F000008231D40454403214942280002F02EFBBE
:102F1000EB7902221343EB71F3780020002BD6D11A
:102F20004B46002B09D0B37A5AB2002A05DB1F2288
:102F30001A4001239340174A13600123B373002002
:102F4000C5E70623FF332022FA54103AFA54033C13
:102F50002100404602F00AFB02254346DB792B4361
:102F60004246D37140460830210002F0FFFA434642
:102F7000DB7B2B434246D373CEE7083464013F1911
:102F800020237B71BBE77C204042A0E77D204042AC
:102F90009DE7C04600E100E0F0B5C64600B588B048
:102FA0001700FDF7F5FF041E04D0200008B004BC94
:102FB0009046F0BD03AB00221A705A709A7004AAB2
:102FC000402111803D39518005932E4B1B78002BF9
:102FD00011D1E53302AA137006A8A53B03803F3B3D
:102FE0004380426002F06AFD040001280FD00028EF
:102FF0000DD002240BE0F52002F084FB0400224BEC
:103000001868FA218900FFF7BBFE02F001FD002CD1
:10301000CBD104A802F036FD04000128C5D0002859
:103020001ED103AB187800025A78024301929B78B4
:10303000984613021021154E154D8022120405E00A
:10304000520876086D080139002905D01342F7D0DF
:10305000300028404340F3E7984503D00324A4E719
:103060000224A2E7019802F0C3FC0A4900F0C0FC68
:10307000DE21890500F0BCFC074902F075FE3860CE
:1030800093E7C046DB090020C80900200080FF004C
:10309000008098000000FA420000C040F0B5D6461B
:1030A0004F464646C0B5002867D1002968D08B69D5
:1030B000002B68D0354B0130187200221A83DA7861
:1030C0000724A243DA708A69DA600E8A1E824D698B
:1030D0005D610C7F0722144024011A787027BA43DF
:1030E0009246002291460027B846C0274246DA554C
:1030F0005246224382437F2422401A705A785B3C16
:10310000A4469C44643467461F51043440271F5131
:103110000C341855083C4F461F5504341C4F1F51A2
:1031200008341B511B4C1C679B6774241855824341
:10313000033082435A70D422484698541032486A69
:103140009850498C04329952002E10D000241E0051
:1031500005E010350134E4B2338AA34207D9EB68A5
:10316000002BF6D01B69002BF3D09847F1E7002025
:103170001CBC90469946A246F0BD01204042F7E7AC
:1031800001204042F4E701204042F1E734050020ED
:10319000953200003546000030B583B005000C00C4
:1031A000002301934B78062B14D0082B5AD0002B08
:1031B0003BD1BC2143520378DB07C022805CBF3A7D
:1031C00002405200DB0F13436B542B00BC330193BE
:1031D00002204BE0C068CB78072B57D89B002C4AC5
:1031E000D3589F462A780E231340022B03D003683E
:1031F0000193122032E0C368019312202EE08B78F5
:10320000AE22AA5C9A4210D9B022AA589B009B58C1
:10321000002B0AD001939A78D8780002104325E059
:103220002A7870231340102B2ED00121280001F0A2
:1032300081FD29E02A7870231340102BF5D1023B41
:103240001A40022A03D0436A01930A2006E0036A67
:1032500001930A2002E001AA00F0F6FE019900297C
:1032600005D1E2E70300AD33019301200199A27972
:10327000E3791B0213431A1C9BB2834200D9021C40
:1032800092B2280001F0C4FD03B030BD0020E5E794
:103290009059000070B505000823C3569A1C41D010
:1032A0004469022B07D04268002A42D1C423E25469
:1032B00000210F261EE0C233E35C002B0ED023005A
:1032C000C433DB68002B09D0D822A558AB422AD0E2
:1032D0002200C432908800220C219847C423012286
:1032E000E2542300C433284ADA60228B9A802100FA
:1032F00024310E262300C433DB68D822A558AB4204
:103300003CD02200C43290880A00310098478C23B8
:103310004022E25022008832E0695833E3589B6B28
:103320000021984770BDDC23E25800210C20A847FB
:10333000D4E7C423E35C002B1DD02300C4335878AA
:103340009B78834202D800210D26D3E7CC23E35893
:1033500018182100243102F0CCFC2200C4326B6822
:1033600051785B18DBB253709278002101269A42A3
:10337000C0D80C36BEE700210126BBE7DC23E258AB
:103380003000A847C3E7C046512B0000F0B5D64631
:103390004F464646C0B50600431C45D0EC2242438A
:1033A000334B9B181B7A5BB2002B3DDDEC22424372
:1033B0002F4B9B18D4331B78002B1CD0012B33D1FF
:1033C000EC2242432A4B9B181B8A9846002B2BD099
:1033D000274BEC224243D75C3F077F0F9B181A0014
:1033E000AD32127891465D690024EC234343204AB4
:1033F000D618B24625E0EC2343431D4CE4182300C5
:10340000E8331888043B1B681B680F219847E0616C
:10341000431C09D0EC237343154EF6183300D43304
:1034200001221A70022333721CBC90469946A246B0
:10343000F0BDA888984710350134E4B2A3B24345E3
:10344000F2D22B783B42F6D06B784B45F3D1F27831
:1034500007231340052BEED153465B785B07EAD474
:10346000EB68002BE7D0DB68002BE2D1E3E7C04636
:1034700034050020F8B5354C256B63689B69984787
:103480006061606902F0D8F9040002F0D1FA002D01
:1034900052D02E4D2C22AB5C0133AB54200001F0F6
:1034A000F1FE2C6B002C06D0A368002B03D1012564
:1034B0000027264E11E0264D00242E0021E0E06971
:1034C00001F070FDE368002B01D020699847346B50
:1034D000002CF0D0A368002BEDD125756575A3787D
:1034E000002B02D1E368002BE9D1200001F0D2F9D2
:1034F000A378002BE6D16770E4E701342035052C72
:1035000015D06301F3185B7D002BF6D063011049E1
:103510008C46634400215975AB78012BEDD16201D3
:1035200062446B689360280000F014F8E5E70749EF
:103530002C228B5C013B8B5402F098FC040000F0C1
:103540009DF9200002F096FCF8BDC046CC08002092
:1035500020060020F0B5DE4657464E464546E0B50B
:1035600085B08146002854D0304B196B83689A4649
:1035700000290CD08B6852460392002290469A454F
:1035800049D3002200238B460092019306E0524665
:103590008260264B1863012034E0E3465E46B6683D
:1035A00034000025009A019B12196B41009201938F
:1035B0005E46B669B446002E12D06646B668002153
:1035C0000F00009A019BB6185F41474529D8E4D106
:1035D000039B9E42E1D960465946009A019B01E057
:1035E000300059464C46A0618C61002051468A1A31
:1035F0004B469A609B69002B04D04A4691689A68B2
:10360000521A9A6005B03CBC90469946A246AB4619
:10361000F0BD0020F6E7054B186381610022012010
:10362000E4E760465946009A019BDBE7CC0800209E
:1036300070B504009A22520042432E4B9B1820334F
:103640001B785BB2002B0FDD9A2252004243294BBC
:103650009B189B6B002B07D09A2252004243254BAC
:103660009B185D7A012D00D070BD9A225200424312
:10367000204B9B181B6C002B1ED0984706009A22EB
:10368000520062431B4B9B183C331B788342EBD0A8
:1036900001281AD09A2252006243164B9B181B79BC
:1036A000002B1FD1134DAD1800220921686BAB6BA5
:1036B000984701232B7115E09A22520042430D4B8B
:1036C0009B183C331B78012BCED09A235B006343BD
:1036D000084EF61800220821706BB36B9847002340
:1036E00033712E009A235B006343024CE4183C3490
:1036F0002670B9E700040020F0B40125ED070C00A6
:103700005C402C40A446AE0A4C18DF18F4423DD26F
:10371000F74245D2640D4CD07F0D3CD0E41BC9026A
:103720002943CF0ADB022B43DB0A0600B61A9F416E
:1037300004D2013CB6197F41B6185F416812800D72
:10374000241838DD0018844225D8E80C0021B61969
:103750007F41B61A9F4103D340414941F7D304E06A
:10376000B6185F4100184941F1D32405B6197F41CD
:10377000B61A9F4105D33743C20717430022012FD2
:103780005041614162461143F0BC70470CD10028A2
:103790000AD1F74208D20020C143490D0905F1E7DB
:1037A000002A01D1F74206D00020C143090DC90407
:1037B000EAE77F0DF8D000206146E5E7F0B583B079
:1037C00006000D0001921F0008AB1C7801F0ACFD53
:1037D000002845D0244B1B785BB2022B06D0012475
:1037E000644201F009FE200003B0F0BD002D31D08D
:1037F000B54232D31D4B1B78002B0BD01C4B012242
:103800001978002908D001322033052AF8D1012483
:103810006442E6E70022154B01211970002159701E
:10382000197559759C705D600199D9601F61AD1B58
:103830009D60104909880C041204120C1443DC61C9
:10384000013189B20C4A914202D00A4A1180C8E77C
:103850000121FAE701246442C3E701246442C0E77E
:1038600001246442BFE7C046CC08002020060020A7
:1038700040060020B2090020FFFF0000F0B5C64658
:1038800000B52A4B1A6B59691961002A42D0916818
:10389000274B994234D9254B5B6900251C00244AEB
:1038A0000023A4185D41214B98465B689B699847AB
:1038B0000027060043461B69834203D91D4A0023A3
:1038C000B6185F41194B196A00230A0092197B410F
:1038D000AB4202D827D1A24225D98E19134BDE6103
:1038E000124BDB691B0402D1104B0122DA610F4B32
:1038F000D86980B25B685B69984704BC9046F0BDAC
:1039000091680A4B5B6900251C0000230A00A4187B
:103910005D41C8E7054B5B6900251C00044A002394
:10392000A4185D41BFE7014BDC61D9E7CC0800205A
:10393000FF7F0000FFFF000030B583B00D0007A936
:103940000C78002810D12849506888621068C86235
:1039500092680A6300224A638A63CA63234A0A643C
:10396000042C03D0052C13D003B030BD1E4A1560C3
:10397000089A5279022A04D00A2AF5D11A4A1371F8
:10398000F2E7089A9279022AEED1174A9374EBE78C
:10399000089B9A78D409D97803230B40022B08D0CE
:1039A000032BE1D163001C19640014340E4B1C1965
:1039B00005E0013463001C1964000B4B1C19089BC3
:1039C0001B79089949790902194322706180089B83
:1039D000DB789B079B0F00910021280001F0F0FD90
:1039E00001232371C0E7C046CC070020A8090020AE
:1039F00030B405004D400124E407254042004B004F
:103A0000120E32D01B0E3CD0FF2A33D0FF2B3FD0FA
:103A1000D21800022043000A09022143090AC4B255
:103A20004C43000AC3B24B43000A4843210A5B18C7
:103A3000190A091801D44900013A080A7F3A2ADB19
:103A4000FE2A0FD2D2051C43240601D001242143B3
:103A5000C9B280295041802901D140084000284343
:103A600030BC7047FF20C005F9E71B0EFF2B0AD0C2
:103A70002800F5E7400206D1FF2BF3D1490202D11D
:103A8000F0E7FF2AF4D17F2000010C300005E7E7C2
:103A90004902F8D1E6E743020132E9D15B12023371
:103AA000E6D9D805E4E7C0464B005B0D264AF0B5E1
:103AB0005C1E944238D8254A9E1825D4332E22DC29
:103AC000234A9B1827D4234ADA400700214B974307
:103AD000F3403C000F0002409F4319403D000A4361
:103AE0000FD0002F0DDA20235B42F11824D4802060
:103AF0004003C840020080214903F1400B00A41894
:103B00005D4120002900F0BD0020002901DB0021DB
:103B1000F9E71149F7E720220E4B921B934001224F
:103B20005242F2401A43D0E7002BECD10022C90FD9
:103B3000CB0710001900E6E720218020891B4003F5
:103B400088400200D7E7C046FD07000001FCFFFFE8
:103B5000E1FBFFFFFFFF0F000000F0BF1F4B002243
:103B60009A619A8C80218A439A841A001023D16822
:103B70000B42FCD01A4B1A68920E3F2A2BD0194BDD
:103B80001B689B059B0D92021343144A93621023FA
:103B9000D1680B42FCD0114B02229A841A001023E8
:103BA000D1680B42FCD0104B104A5A601A0053786F
:103BB0005BB2002BFBDB0C4B0D4A5A800D4A5A803E
:103BC0000D4A5A800D4A5A800D4B0E4A1A62034B19
:103BD00000221A627047203AD1E7C0460008004030
:103BE0002460800028608000000C00400007010075
:103BF00006400000144000001B4000001E40000072
:103C0000000400400408010070B50D1E40D00028DB
:103C100041D1224C34230122E2540B686360DB68FB
:103C200098470100E0601E48FFF7AAF80100C8208D
:103C3000FDF700FE023020620423EB5623720023BE
:103C40002361184AA261184AE2616362A362236396
:103C50002C22A35463681B680021144898476368AA
:103C60001B69002B02D00D4A108B98470B4CE06962
:103C700080B263685B69984763685B689847A02275
:103C800000210B4802F080F802232370200070BD51
:103C900001204042FBE701204042F8E7CC08002029
:103CA000006CDC02FFFF0000FF7F000075340000A5
:103CB0002006002070B505000C00431C41D00029EF
:103CC00042D00823CB56012B41DDC378002B0DD108
:103CD000837B012B02D07F20404270BD0023837381
:103CE0000A20285601F03CFA060000E00026FE23D8
:103CF000237200236360E369002B0ED0A2699A61EE
:103D0000A369002B01D0E269DA610023E361A361BA
:103D1000E368002B01D020009847EB780020002BAF
:103D2000DBD1002E09D0AB7A5AB2002A05DB1F2264
:103D30001A4001239340074A13600123AB7300200C
:103D4000CBE77D204042C8E77D204042C5E77D208B
:103D50004042C2E700E100E030B5882933D015DCED
:103D6000812941D003DC80293ED0002030BD82294A
:103D700011D08429F9D11C6802CC1C60002A1ED005
:103D800009B20160C91741600120EFE7A02923D0E3
:103D90000ADC9029E9D1072419680731A14330C909
:103DA000196004604560EFE7C02901D0F029DCD13B
:103DB0001A68111D196013680360002312E089B2AC
:103DC00001604260E0E71C6802CC1C60002A01D060
:103DD00049B2D6E7C9B2F3E71A68111D1960136832
:103DE0000360DB174360CFE719680C1D1C600B688C
:103DF0000360002AE5D0F4E770B504000F230B4000
:103E000049B2022B2ED8421C2FD010339B00C3186E
:103E10005D680911082319406D18C378002B29D15A
:103E2000837B012B02D07F20404270BD002383732F
:103E30000A20205601F094F9060002214942280088
:103E400001F094FBE378002B12D1002E1BD0A37A53
:103E50005AB2002A17DB1F221A40012393400C4A52
:103E6000136010E07C204042DFE77D204042DCE729
:103E70000020DAE702214942280001F077FBE378CD
:103E80000020002BD1D10123A3730020CDE7C04631
:103E900000E100E030B405004D400124E407254076
:103EA00042004B00120E26D01B0E34D0FF2A2DD01C
:103EB000FF2B35D0D21A00022043090221434308C8
:103EC0004908A00D5B1A02D2013A5B005B185B0047
:103ED0008B4200D35B1A4041F9D37F3222DDFF2AA7
:103EE00006D2D205C91A8B425041284330BC7047D4
:103EF000FF20C005F9E71B0E03D0FF2B12D14902AA
:103F000010D07F2000010C300005EFE74002F8D10F
:103F1000FF2BEDD1F5E7FF2AEAD14002F1D1E7E727
:103F20004902EED12800E1E7DC460000DC46000053
:103F3000F6460000F6460000F6460000F646000091
:103F4000F6460000F6460000F6460000F646000081
:103F5000F6460000F6460000F6460000F646000071
:103F6000F6460000F6460000F6460000F646000061
:103F7000F6460000F6460000F6460000F646000051
:103F8000F6460000F6460000F6460000F646000041
:103F9000F6460000F6460000F6460000F646000031
:103FA000F6460000F6460000AC460000BC460000A5
:103FB000CC460000E6460000F0B5C6461F4A204B3E
:103FC00000B50021934203D2197001339342FBD113
:103FD0000B231C4A9C46083B9846136854681900FA
:103FE0000026214311D0170091680C3700290FD10A
:103FF0001A19002C03D01E7001339342FBD13A00F2
:104000001368546819002143EDD104BC9046F0BDFB
:104010006146C91A1D195118002C05D05A1C505C54
:10402000187013009542F9D1434623405A1E93411C
:10403000A4081C19A4003F193A00E1E70000002081
:104040000000002034160000F8B5CE46474680B583
:104050000D0090468E78C46927683B78023BDBB23E
:104060005A0891460022012B05D9007E01384946A5
:10407000FDF7E0FBC2B20020B24203D20CBC904676
:104080009946F8BD002E03D143461F603878F5E706
:104090002A796B791B021A434B4698B20028EDD05F
:1040A0007B88934211D00437012301339BB298429D
:1040B0000DD30237B91E09889142F6D173439B0094
:1040C0001B59424613601878D8E70123F6E7002011
:1040D000D4E7FEE770B50400431C02D00378002B40
:1040E00000D170BD456A1021FEF778F9E378002B06
:1040F00020D1A37B012BF4D10026A6730A202056E1
:1041000001F02EF8A671134BAB82AE722B890122FF
:1041100013432B81E378002BE3D1002816D0A37A38
:104120005AB2002A12DB1F221A40012393400A4A86
:1041300013600BE00023A371064AAA82AB722B899D
:10414000012213432B81E378002BCAD10123A373EF
:10415000C7E7C046FF03000000E100E070B50400BF
:1041600011795378002B14D1BC254353E433C35841
:104170005B6BC069984701230340605D0122904357
:10418000184360552100BC310132200000F040FE90
:1041900070BD012B07D0032B14D00C2BF8D10121BB
:1041A00000F0C8FDF4E79078D3781B020343EFD109
:1041B000E433E358DB6AE06998470021200000F00F
:1041C000B9FDE5E79078D3781B020343E0D1E433EF
:1041D000E3589B6AE06998470021200000F0AAFD9F
:1041E000D6E770471C4B01221A701A00537E5BB24F
:1041F000002BFBDB194B1A68194B596849011B68E6
:10420000DB0E0B430721114049010B435201E02112
:10421000C9000A40FF210B401A430F4B1A850322A5
:10422000DA70023A5A700F4A1A611A00537E5BB272
:10423000002BFBDB084BC02292009A801A00537EB1
:104240005BB2002BFBDB044B0F221A761A00537E65
:104250005BB2002BFBDB7047004000422460800013
:10426000206080001118000010B5082909D88900C5
:104270001D4841588F4619000D311868072200F07B
:10428000C7FD10BD591D1868072201F02DFBF8E786
:104290001178C907C80F197D0124A143014319757D
:1042A0001278022111401A7D022082430A431A75B6
:1042B0001868002100F03EFDE3E712889A84186830
:1042C000002100F037FDDCE720210120585452681E
:1042D0001A63D6E71868002100F02CFDD1E72122EF
:1042E00001219954CDE7C0468058000010B5040064
:1042F000431C09D09A2252004243194B9B18203389
:104300001B785BB2022B00D010BD9A2252004243B0
:10431000134B9B189B7A5AB2002A07DB1F221A40C4
:10432000012393400F49C02252008B509A22520021
:1043300062430B4B9B180122DA705B7A012B07D08A
:104340009A235B006343064CE4180023E370DBE729
:104350009A2040006043024BC018FBF7BDFEEFE718
:104360000004002000E100E0F0B5DE464F4646467E
:10437000C0B586B00490B423C458A278E3781B0279
:104380001343994628D0002600239846059300251C
:104390000EE0A0780590E3789846049900F0A5FC1B
:1043A000060008E02378ED18ADB2E418A94513D94A
:1043B0006778042FEDD0002EF4D0F368002BF1D0F5
:1043C000B268B08802940197414600911B689B46F1
:1043D000059B0499D847E5E706B01CBC9046994672
:1043E000A346F0BD10B50A2807D88000184B1B580B
:1043F0009F46184A22230121D15410BD164B80221A
:10440000D2005A61134B00221A73F6E70B78012B86
:10441000F3D1104A1373104B8021C90099610F49E1
:10442000002001F0C5FAE8E70A4B186801F03AFAF3
:10443000E3E7084B186801F0B4F9074B8022D2007B
:104440005A61DAE7044B8022D2005A61D5E7C046B0
:1044500040550000900800200044004169420000DF
:1044600070B584B004000E0003AB00221A705A70BD
:104470009A7001AA7621118073395180029301F05C
:1044800055F905002407640FA400134BE058FA21E6
:104490008900FEF775FC01F0BBFA002D02D0280060
:1044A00004B070BD002001F041F9051EF7D101A84C
:1044B00001F0E8FA05000128F1D0002809D103AA8B
:1044C00013781B04517809020B439278134333602D
:1044D000E5E70225E3E7C046E45B0000F0B51E0017
:1044E000012389B014000E9A07001A40029101922C
:1044F00020D1B4421EDA351B03952A00102D00D9B5
:104500001022202104A801F03FFC0F2D1BDC0F22FC
:10451000039B04A913401A00380001F068F9019BBD
:10452000002B04D122000299380001F060F930001C
:1045300009B0F0BD22000299380001F058F9B442E8
:10454000D9DB2600F3E7102204A9380001F04FF967
:10455000103DDAE710B584B04169019043680293D9
:104560000823C356DAB2012A07D9DA1C1FD0043354
:1045700021D001ABA0221A7202E001AB00221A7214
:104580000B015B189A000E4B9B185A6B013A5A6349
:104590001C6A002C09D00B0159188900084B5918C6
:1045A0004B6A406901AA0421A04704B010BD01ABC9
:1045B0009E221A72E4E701AB9F221A72E0E7C0461E
:1045C000CC07002010B5002805D10E2904D00F29F2
:1045D00024D00D2918D010BD154B186813789B06F0
:1045E00009D55378012B0AD9203B032B07D9012188
:1045F00000F0A0FBEFE7012100F09CFBEBE70C498A
:10460000002000F04BF8E6E7094B1C6A002CE2D0D2
:104610005B6A002208210020A047DCE7044B1C6AEB
:10462000002CD8D05B6A002207210020A047D2E7E7
:10463000CC07002070B5050044690823C356023337
:104640002BD023787F2B0DD86378DB071BD56378BD
:10465000012293436370A178E423E358DB6CE069A3
:10466000984710E0AC23E15C3833E358DB68E0693D
:10467000984722787F2313402370E37807229343DF
:1046800004221343E3700823EB56002B05D16B681B
:10469000002B02D1C4330022E25470BD10B5537810
:1046A000232B28D89B00164CE3589F460C6A002CFD
:1046B00018D04B6A00220021A04713E00C6A002C9E
:1046C00010D04B6A00220121A0470BE00C6A002C9D
:1046D00008D04B6A02320221A04703E0086801219A
:1046E00000F028FB10BD0C6A002CFBD04B6A023294
:1046F0000321A047F6E70868012100F01BFBF1E762
:10470000283F000010B584291FD007DC812915D06F
:10471000822922D0802911D0002010BD90291CD0E0
:1047200008DC8829F8D119680C1D1C600B6803602F
:104730001A7010E0A02901D0C029EDD119680C1D14
:104740001C600B6803601A6005E019680C1D1C6092
:104750000B6803601A800120DFE719680C1D1C60DC
:104760000B6803601A60D2175A60F4E710B5134B58
:1047700006225A6000F0D6FCFFF7F0F901F03EFB8C
:10478000FDF78DFF00F056F8FFF72CFD00F0CAFB97
:104790000B490020FFF738FA0A4C60600A490020F4
:1047A000FEF77CFC206009490020FEF7AFF8A0600E
:1047B00000F0FCF900F0FCF810BDC04600400041DC
:1047C0007C5E00009C090020B45600005C5800008C
:1047D0004B1801225205DA4217D25B0D0722D20193
:1047E0009B1A0FD9FF2B13D2DB05CA0FD207134335
:1047F0000903020D1143490AC200524100D9013197
:10480000C8187047C80FC007704706D1002804D1E8
:10481000C80F0002FF30C00570470123DB070A0004
:10482000C900400F084398431A4010435B0A1843DD
:104830007047C046144B01221A601A00D369002B3E
:10484000FCD1114B802252005A601A00D369002B10
:10485000FCD10D4BE822DA600C4A1A601A00D369C9
:10486000002BFCD1084B10225A831A00D369002B6D
:10487000FCD1074B002221215A5401395A54024BD2
:1048800083329A757047C046000800421600100037
:104890003409002010B5164B1A6B002A24D082422E
:1048A00005D18369002B17D0002208E01A00936914
:1048B000002B1BD09842F9D18369002B05D0846866
:1048C000996809199960002A08D0836993610023C7
:1048D00000228261180010BD1A00F4E7044B1A6B25
:1048E00092691A630123F3E70023F3E70023F1E75A
:1048F000CC08002070B5040000F016FD002825D07B
:10490000200000F02FFB041E1ED043780025002B52
:1049100012D18368002B01D1436883600C4A2C2399
:10492000D35C002B0CD1200000F096FA00232375F5
:10493000637501336370002500F05EFD280070BDD3
:104940002000FEF707FEF1E70125F5E70125F5E771
:10495000CC08002000230E4A10B513600D4A1360E6
:104960000D4A13600D4A13600D4A13600D4A5362DD
:1049700013610133936000F002FA00F000FA0A4C70
:104980000A4B9C4200D310BD08CC9847F8E7C046BC
:10499000D409002088070020840700207C0700201D
:1049A000800700208C070020BC000000C000000031
:1049B000BFF35F8F62B6114BC12080001A581202FC
:1049C000120AC02109060A431A5080221A600430D4
:1049D0001A580B491140C02212020A431A50802271
:1049E00092001A6008301A5806491140C022120479
:1049F0000A431A508022D2021A60704700E100E098
:104A0000FF00FFFFFFFF00FF70B582B005000E0042
:104A10001C1E01D100281ED0002A04D101246442AA
:104A2000200002B070BD0D4BD8680023002100F0BB
:104A30006BF8FA229200002300F054FB010000946E
:104A400033002A000020FEF7B9FE0400431CE7D023
:104A5000FFF750FFE4E701246442E1E7CC080020BF
:104A600010B5114B00229A61DA61104B83321A762D
:104A70005A680F4C22405A601A00D369002BFCD1AF
:104A800000290CD0084A20330324D45440000843A2
:104A9000064B58621A00D369002BFCD110BD024AA4
:104AA00020230424D454F1E73409002000080042F4
:104AB000FFFFFBFF10B582B002000C1E1FD00123C8
:104AC000002802D1180002B010BD0E4BD868002398
:104AD000002100F019F8FA229200002300F002FBF6
:104AE00001000023009300220020FEF767FE2060F3
:104AF0000123421CE6D0FFF7FDFE0023E2E701237D
:104B0000E0E7C046CC080020F0B5CE464746150485
:104B10002D0C2E0080B50704140C3F0C9946030C95
:104B20007E435D43674363437F19340CE4199C461D
:104B3000A54203D980235B029846C4444B464343B5
:104B40005143250C36046544360C2404A4195B1922
:104B5000591820000CBC90469946F0BD70B5040071
:104B600008001500210000F0C0F8002819D0C36823
:104B7000002B10D09B68002B07D0C434E3608088E2
:104B8000A0802A000E21984770BD2A000E21200027
:104B900000F0A9FCF8E72A000E21200000F0A3FC99
:104BA000F2E70121200000F0C5F8EDE710B5104B49
:104BB00000221A710121494219601A73802464424B
:104BC0005C73A5349C730024DC731C749A740820F5
:104BD000D8749961D96102311830195401301954CF
:104BE00021315A54034A9A62034ADA6210BDC04620
:104BF000900800200000002000020020F0B50F0007
:104C000087B0039015001049072204A81C0001F08A
:104C100070F8BB687E6802933F68002D00D104AD38
:104C2000002C03D1280001F0B7F80400002E02DBAD
:104C3000B44200D934000097029B22002900039857
:104C4000FFF74CFC07B0F0BD845E000030B51500E6
:104C5000012289B0524201920432FF3202920028AE
:104C600000D16846002403900491A14200D04C1E5C
:104C70000594002906DA4F220120074B40421A60B2
:104C800009B030BD00220790027006901A0029007A
:104C900001A800F0B3FFF3E7D0090020F0B5C64645
:104CA00000B506783607760FAD23C35C9846078AB1
:104CB0004569002F16D0002405E010350134E4B218
:104CC000A3B2BB420ED22B783342F6D06B78434569
:104CD000F3D1EB68002BF0D05B68002BEDD0A888F7
:104CE0009847EAE704BC9046F0BDF0B50D8A4A69E2
:104CF0000C782407640FAD23CE5C002D18D0002360
:104D000005E010320133DBB299B2A9420DD211781D
:104D10002142F6D05178B142F3D191788142F0D856
:104D2000D77879188842ECDA00E000221000F0BD54
:104D30000022FBE710B50C0000F024FF00281BD078
:104D4000C4230022C254012C0DD000234366836685
:104D500002006432C469E433C3589B6B8021200095
:104D60009847002010BDC2692033C3589B6A802138
:104D7000100098470020F5E775204042F2E77047A1
:104D800010B5064C2378002B07D1054B002B02D021
:104D9000044800E000BF0123237010BD600900201B
:104DA0000000000000000000044B10B5002B03D0F1
:104DB0000349044800E000BF10BDC04600000000E9
:104DC000640900200000000010B50A4B98470A4B08
:104DD0009847FFF7F1F8094BFF229343084A936085
:104DE000084B9847084B9847084B984700F0F2FF4C
:104DF00000BEFEE7E3410000E341000000000000C8
:104E000000ED00E055490000E3410000E3410000EF
:104E100070B50D00140000F0B5FE002818D0020097
:104E2000643245668466E023C35AA34205D006D99E
:104E3000030064330121197401E002211174C46973
:104E4000E423C3589B6B802120009847002070BD4D
:104E500075204042FBE7FFFF70B505000E4C63680C
:104E60009B6998476061606900F0E6FC040000F00F
:104E700009FA200000F0DCFD2800FEF76BFB00289B
:104E800000D170BD00F0F2FF0400FEF7F7FC200037
:104E900000F0F0FFF5E7C046CC080020090243000F
:104EA000020100C0320904000001020201000524D1
:104EB000002001042402020524060001052401004B
:104EC000010705810310000209040100020A000025
:104ED00000070502024000000705820240000000B2
:104EE00041008C46012212068A420BD80909382358
:104EF0001B06C918C30FDB07194340076346DA4294
:104F000004D27047C10FC9070020704703D138236E
:104F10001B06C918704738231B06C9180122D20482
:104F2000114370470C4B01221A801A00D37B5BB2ED
:104F3000002BFBDB084B60221A80084A1A833B22B5
:104F40009A73074A0021116020225A731A00D37BFA
:104F50005BB2002BFBDB7047002C004280BBFFFFE5
:104F6000B4090020431E033314D803041B0C042B84
:104F700013D859010A4A5218D169002281420AD134
:104F80005A010749515C0022002904D05B01044A00
:104F90009A1800E00022100070470022FBE7C0468C
:104FA0002006002010B5040000F0BEF9002817D03C
:104FB0002000FFF7D7FF041E10D04378002B08D144
:104FC0000023237563752370002400F015FA200078
:104FD00010BDFFF75FFC00236370F1E70124F4E7E5
:104FE0000124F4E730B5B423C0588378C5782D0286
:104FF0001D4315D0002307E08478147004781B1932
:105000009BB200199D4209D94478042CF4D0052C98
:10501000F4D184788C42F1D1012000E0002030BD31
:105020000020FCE730B401256D054C00E54215D8A1
:105030005C00E54212D80C001C4364000443144396
:105040000CD005D282428B418041404230BC704737
:10505000904299418041404230BC7047002030BCB2
:105060007047C04630B401256D054C00E54215D8A7
:105070005C00E54212D80C001C4364000443144356
:105080000CD005D2904299418041404230BC7047DB
:1050900082428B418041404230BC7047002030BC8E
:1050A0007047C046030010B51A78202A0DD01100B1
:1050B0000939042909D900212B2A02D02D2A01D12E
:1050C0000131013300200A2404E00133ECE760439E
:1050D0000133801A1A78303A092AF8D9002900D108
:1050E000404210BD002B11D1002A0FD1002900D160
:1050F000002802D00021C943081C07B4024802A1BD
:105100004018029003BDC046A10D000003B46846DC
:1051100001B50298FCF732FE019B9E4602B00CBC22
:105120007047C0460D4B8822D2001A6000214622EB
:105130009954013206209854463A42301A540130AC
:105140001A540130195458315A5401315A543332D7
:10515000373999540832443199547047004400411A
:1051600070B5050000F0BCFD0024002D0FDB0A49DE
:105170000A681F232B40DA400134144001229A4070
:10518000130080228B50BFF34F8FBFF36F8F00F05F
:1051900058FD200070BDC04600E100E0002813D19A
:1051A0000C4B1B7A5BB2022B11D10A4AD433D35C6D
:1051B000002B02D0012040420BE010000133D62228
:1051C0008354013A835404E00120404201E001206D
:1051D00040427047340500201C2101231B049842E3
:1051E00001D3000C10391B0A984201D3000A083978
:1051F0001B09984201D30009043902A2105C40182F
:105200007047C046040302020101010100000000D2
:10521000000000004B005918094B0A019A1842641B
:105220004A1C12019A188264023109015918C1649A
:10523000044B0361044B436100238371C3717047C6
:1052400004090020100800205008002010B50C4C64
:105250002023E45C0023002C01D0180010BD084B73
:105260009880D9605A6100229A601A610121997070
:105270001A7020315A542039FFF7F2FB0123ECE772
:10528000340900200C4B1B6B002B11D000280FD0D1
:10529000002107E09A68801A99609B69002B07D06B
:1052A000002805D09A688242F4D39A68101A986050
:1052B000014B5A691A617047CC08002070B500286C
:1052C00000D070BD0A4C2568A11D280000F02EFBFF
:1052D00021000C31280000F029FB210014312800A6
:1052E00000F024FB21001A31280000F01FFBE8E742
:1052F000CC07002010B50B4C2023E45C0023002CCD
:1053000001D0180010BD074B9880DC605C6199608B
:105310001A619C701C7021229C540021FFF7A0FB95
:105320000123EEE73409002010B50B4A2C23D35C8F
:105330000120002B04D13433D35C0020012B00D09A
:1053400010BD130034220021995408201856FFF78D
:1053500007FF0120F4E7C046CC08002034034100D9
:1053600074006D006F0073007000680065007200CB
:10537000690063002000530065006E0073006F0039
:10538000720020004D006F00640075006C00650025
:10539000F4464A1805D200F061F801D5C01740085C
:1053A000604701235B05D34206D200F057F801D5D0
:1053B0000120C0074042604701D10042F5D0D0171C
:1053C00040087047F0B5050000200A4C4200165D09
:1053D000002E02D1A2185078F0BD296801300F7854
:1053E000C0B2B74203D1A2180131507829600A280F
:1053F000ECD9F1E7D85A0000094B1B7A5BB2002BBD
:10540000FFFFFFFFFFFFFFFFFFFFFFFFFFFFFFFFAC
:10541000FFFFFFFFFFFFFFFFFFFFFFFFFFFFFFFF9C
:10542000FFFFFFFFFFFFFFFFFFFFFFFFFFFFFFFF8C
:10543000FFFFFFFFFFFFFFFFFFFFFFFFFFFFFFFF7C
:020000042000DA
:0200000400807A
:0840000077C700D85C00FFFF48
:10400800FFFFFFFFFFFFFFFFFFFFFFFFFFFFFFFFB8
:10401800FFFFFFFFFFFFFFFFFFFFFFFFFFFFFFFFA8
:10402800FFFFFFFFFFFFFFFFFFFFFFFFFFFFFFFF98
:10403800FFFFFFFFFFFFFFFFFFFFFFFFFFFFFFFF88
:10404800FFFFFFFFFFFFFFFFFFFFFFFFFFFFFFFF78
:10405800FFFFFFFFFFFFFFFFFFFFFFFFFFFFFFFF68
:10406800FFFFFFFFFFFFFFFFFFFFFFFFFFFFFFFF58
:10407800FFFFFFFFFFFFFFFFFFFFFFFFFFFFFFFF48
:10408800FFFFFFFFFFFFFFFFFFFFFFFFFFFFFFFF38
:10409800FFFFFFFFFFFFFFFFFFFFFFFFFFFFFFFF28
:1040A800FFFFFFFFFFFFFFFFFFFFFFFFFFFFFFFF18
:1040B800FFFFFFFFFFFFFFFFFFFFFFFFFFFFFFFF08
:1040C800FFFFFFFFFFFFFFFFFFFFFFFFFFFFFFFFF8
:1040D800FFFFFFFFFFFFFFFFFFFFFFFFFFFFFFFFE8
:1040E800FFFFFFFFFFFFFFFFFFFFFFFFFFFFFFFFD8
:0840F800FFFFFFFFFFFFFFFFC8
:00000001FF
